:10000000C039022089CB040031E4040031E404004B
:1000100031E4040031E4040031E4040031E404007C
:1000200031E4040031E4040031E4040031E404006C
:0C00300031E4040031E40400090B03007B
:10004000A9CC000060220000490604000300000063
:100050000300000003000000030000000000000097
:10006000ABCC0000A92300004906050003000000F6
:100070000300000003000000030000000000000077
:10008000ACCC00008E2200004906080003000000EE
:100090000300000003000000030000000000000057
:1000A00009C00000CF230000050404000300000085
:1000B0000100000003000000030000000000000039
:1000C0000AC00000F423000007040400030000003D
:1000D0000100000003000000030000000000000019
:1000E00023C000000C2300000506040003000000EC
:1000F00003000000030000000300000000000000F7
:100100002BC00000342300000E0604000300000092
:1001100003000000030000000300000000000000D6
:10012000ADC000007B2500002D0604000300000088
:1001300003000000030000000300000000000000B6
:10014000AFC00000CF2400002D0604000300000013
:100150000300000003000000030000000200000094
:10016000ACC000005A2500002B060400030000006C
:100170000300000003000000030000000000000076
:10018000AEC00000152500002B060400030000008F
:100190000300000003000000030000000200000054
:1001A000A80000003C2700000E0605000300000028
:1001B0000300000003000000030000000000000036
:1001C000AE0000005C2700000506050003000000EB
:1001D0000100000003000000030000000000000018
:1001E0008C0000009B2700000504050003000000B0
:1001F00000000000030000000300000000000000F9
:100200008D000000D5270000070405000300000052
:1002100000000000030000000300000000000000D8
:10022000A5C00000BB2B00002D0605000300000048
:1002300003000000030000000300000000000000B5
:10024000A9C00000042B00002D06050003000000DB
:100250000300000003000000030000000200000093
:10026000A4C00000D42B00002B06050003000000F2
:100270000300000003000000030000000000000075
:10028000A8C000001F2B00002B0605000300000083
:100290000300000003000000030000000200000053
:1002A00037C000008323000005060800030000009B
:1002B0000100000003000000030000000000000037
:1002C00035C00000F224000005040800030000000F
:1002D0000100000003000000030000000000000017
:1002E00036C00000AC240000070408000300000032
:1002F00001000000030000000300000000000000F7
:10030000000000000F2800000000000000000000B6
:1003100000000000000000000000000000000000DD
:1003200071400021DB4000219D4000210941002156
:100330001541002121410021394100215141002175
:10034000DB420021074C657900F009F861796940CA
:10035000490703D50121044A8903116070BD70B5B6
:100360000249084780030021081104402D5900006C
:1003700000F019F8E1B26C290BD0042801D006284E
:1003800007D110490978C90703D12178090700D49A
:1003900002200D490A780C21114202D00B4980221B
:1003A0000A6003B0F0BDF0B583B0094908470020EA
:1003B0000849884704480178402291430170064863
:1003C00000470000C80000213301002100E200E0E6
:1003D00041160300F7630000231B030000F088F8B8
:1003E00000480047577F000000F088F800480047A9
:1003F0001B880000094B1A780824A243002800D06B
:1004000022431A70004A1047838E0000034908787F
:10041000000701D402480047704700008003002114
:100420005F7E0000044A2820904704480121416073
:100430000348044A416010474F4200000050044006
:100440000060044085420000F8B5014908470000FB
:100450000D64000070B51F4D2878C4B21E48804757
:100460002878032834D1032C32D01C488068400DF2
:10047000C2071A48014660318030002A03D01F2489
:100480000C57458802E01E240C570588002C1FD00D
:100490001348154A41690079414348101149496997
:1004A000401810494039497F90474005401569423E
:1004B00088420DDBA8420BDC0C4B996988B20246DE
:1004C000090C624309045212801880B208439861F3
:1004D00070BD0000E40200217941000028000021E5
:1004E0008003002100030021CB8100004040044034
:1004F000806B0C490007000F48717047094A0A4990
:1005000018235079CB56497EC018814201DD084638
:1005100002E00F2800DD0F20D189090909010143FC
:10052000D1817047E00200218800002110B501460A
:100530002B4B2C4800E020BF42699207FBD1294891
:10054000DA7A403000680B2A01D100F043F810BD80
:100550002022521A9040244A00BA9369434021480D
:1005600000E020BF42699207FBD488001F49401871
:10057000C3631C4840300360704710B5194800E061
:1005800020BF42699207FBD4426B174B98695040D9
:100590005A8AD40701D00124604052085A8220228E
:1005A000511A88400F4900BA4031086010BD10B59B
:1005B0000446FFF749FF0C49097C8909C80708D0A0
:1005C0000B48E10701D00B4900E00B4901620B49E0
:1005D000416210BD2022511A884000BA70470000C5
:1005E000600100210020044028000021C0210440B7
:1005F00080030021A74200217D42002159420021B1
:100600002D2D2D2D2D424547494E2043455254490D
:100610004649434154452D2D2D2D2D0D0A4D494957
:1006200042627A434341525543464873582F614FC3
:100630002F38736B5A2F334E4151727A51393537F7
:10064000482F614E594D416F4743437147534D34D5
:100650003942414D434D413078437A414A0D0A4277
:10066000674E5642414D54416B4E424D43495944A9
:100670007A41774D4441774D5441784D4441774D0F
:10068000444177576867504F546B354F5445794D07
:100690007A45794D7A55354E546C614D474D780DFC
:1006A0000A437A414A42674E5642415954416B5A75
:1006B0004A4D51307743775944565151494441523C
:1006C00050645778314D51307743775944565151E2
:1006D0004844415250645778314D513077437759EF
:1006E000440D0A5651514B444152305A584E304DE8
:1006F0005130774377594456515144444152305A0E
:10070000584E304D5267774667594A4B6F5A496881
:1007100076634E41516B4246676C305A584E3051A9
:1007200048526C0D0A633351775754415442676302
:1007300071686B6A4F5051494242676771686B6AD2
:100740004F50514D4242774E434141517462727154
:100750004B2B5A3267577A39726776533466676B18
:10076000576E316B620D0A7745527231356B4672A6
:1007700037436D4E4D363367416D4D795330386D8B
:10078000352F7342597073355855644977462B504D
:100790007A3875596D6B344C70536C2B6F304F4CED
:1007A0006B6D614D416F470D0A43437147534D34A3
:1007B0003942414D43413067414D45554349446BB2
:1007C0006E754F642F73745959674B336F7A747811
:1007D00073706E4B42486F4F4F38556355423350DC
:1007E0004832416649713234650D0A4169454138E4
:1007F0004F4D4A34346933544B546F696E56314906
:1008000041546D38316D71752B35704271597534A5
:1008100052745830452F785038383D0D0A2D2D2D03
:100820002D2D454E44204345525449464943415499
:10083000452D2D2D2D2D00FF0000891112239B32F7
:100840002446AD573665BF74488CC19D5AAFD3BEA0
:100850006CCAE5DB7EE9F7F88110080193331A22B0
:10086000A5562C47B7753E64C99C408DDBBF52AE80
:10087000EDDA64CBFFF976E802218B301002991390
:100880002667AF763444BD554AADC3BC588ED19F60
:100890006EEBE7FA7CC8F5D983310A209112180370
:1008A000A7772E66B5543C45CBBD42ACD99E508F40
:1008B000EFFB66EAFDD874C904428D5316619F7040
:1008C0002004A9153227BB364CCEC5DF5EEDD7FC20
:1008D0006888E1997AABF3BA85520C4397711E6030
:1008E000A1142805B3373A26CDDE44CFDFFD56EC00
:1008F000E9986089FBBB72AA06638F7214409D5110
:100900002225AB343006B9174EEFC7FE5CCCD5DDDF
:100910006AA9E3B8788AF19B87730E6295501C41EF
:10092000A3352A24B1163807CFFF46EEDDDC54CDBF
:10093000EBB962A8F99A708B088481951AA793B6CF
:100940002CC2A5D33EE1B7F04008C919522BDB3ABF
:10095000644EED5F766DFF7C899400859BB712A68F
:10096000ADD224C3BFF136E0C1184809D33B5A2A9F
:10097000E55E6C4FF77D7E6C0AA583B4188691976F
:100980002EE3A7F23CC0B5D14229CB38500AD91B7F
:10099000666FEF7E744CFD5D8BB502A4999610874F
:1009A000AFF326E2BDD034C1C3394A28D11A580B5F
:1009B000E77F6E6EF55C7C4D0CC685D71EE597F41F
:1009C0002880A1913AA3B3B2444ACD5B5669DF783F
:1009D000600CE91D722FFB3E8DD604C79FF516E40F
:1009E000A9902081BBB332A2C55A4C4BD7795E681F
:1009F000E11C680DF33F7A2E0EE787F61CC495D5EF
:100A00002AA1A3B03882B193466BCF7A5448DD59FE
:100A1000622DEB3C700EF91F8FF706E69DD414C5CE
:100A2000ABB122A0B9923083C77B4E6AD5585C49DE
:100A3000E33D6A2CF11E780F2D2D2D2D2D424547BB
:100A4000494E2043455254494649434154452D2D72
:100A50002D2D2D0D0A4D4949424C7A4342317141A9
:100A600044416745434168516F6F44744232444684
:100A7000574673446C6B5679654B4C6B6B467132C1
:100A8000377654414B42676771686B6A4F505151DA
:100A900044416A414E0D0A4D5173774351594456B2
:100AA00051514445774A4451544169474138774D43
:100AB0004441774D4445774D5441774D4441774DFE
:100AC000466F59447A6B354F546B784D6A4D784D6B
:100AD0006A4D314F5455350D0A576A414E4D517389
:100AE00077435159445651514445774A44515442F1
:100AF0005A4D424D4742797147534D34394167450C
:100B00004743437147534D34394177454841304954
:100B1000414247305A4142442B0D0A67384E7663B2
:100B2000394B4270772F6148686F696D394B72712C
:100B30007A4F59503571546D5A67533875784D2F27
:100B4000657165414A367672536976574654326606
:100B50007848757A58472B796676730D0A6F504E30
:100B600067424A68762F594E684D394B6A45444171
:100B70004F4D41774741315564457751464D414D81
:100B80004241663877436759494B6F5A497A6A3010
:100B9000454177494453414177525149670D0A43D2
:100BA0004B30302F574E71724C7A537437517475E5
:100BB000737467624C2B6B6962584275574665596E
:100BC000426A55357950626148454349514438611C
:100BD00046775074322F6F584C4F53613767420D30
:100BE0000A396E7770413172736D7A434A4C76627E
:100BF000386F7578513375685862673D3D0D0A2D21
:100C00002D2D2D2D454E44204345525449464943F0
:100C10004154452D2D2D2D2D00000FAC000000005E
:100C20005F30050000000000010000007134050085
:100C300000000000020000007D34050000000000FC
:100C400003000000993D05000000000008000000BE
:100C5000C5020500000000000D000000919C04008A
:100C600000000000240000009D2905000000000095
:100C700025000000AD29050000000000260000004E
:100C8000B17D03000000000027000000295A040085
:100C90000000000028000000A13D05000000000049
:100CA000360000002D2A0500000000004100000071
:100CB000410705000000000042000000D91E0500A9
:100CC000000000004300000089140500000000003F
:100CD000440000003D2A0500000000005000000014
:100CE0004D2A050000000000510000005D2A0500AB
:100CF000000000005200000095EE0400000000001B
:100D00005300000009DF0400000000005400000050
:100D100031DF0400000000005B000000ED1E050054
:100D2000000000005F0000006D2A050000000000C8
:100D3000600000004D5A0300000000006300000046
:100D4000D5910300000000006400000075820400DB
:100D50000000000065000000ED44040000000000F9
:100D600066000000358E0200000000000015000043
:100D7000BD290500000000000115000025AD04009C
:100D80000000000056150000CD29050000000000FD
:100D900057150000DD29050000000000581500006F
:100DA000ED2905000000000059150000FD2905008F
:100DB000000000005A1500000D2A05000000000088
:100DC0005B150000A1D50300000000005C150000C9
:100DD0001D2A0500000000005D150000A93D05006A
:100DE000000000005E15000059140500000000001E
:100DF0005F150000711405000000000000080000ED
:100E0000000000000000080400000000FFFFFF00D9
:100E10000C1100000000000000001D110000000087
:100E2000000000002E010F000000FF0000002F0155
:100E300000000000FF000000300100000000FF0083
:100E40000000310100000000FF000000320100003E
:100E50000000030000003301000000000300000058
:100E60003401000000000100000035020000000015
:100E7000FFFF0000370200000000FF000000390201
:100E800000000000FF0000003B0200000000FFFF28
:100E900000003D0200000000FFFF00003E010000D6
:100EA0000000010000003F01000000000100000000
:100EB0004001000000000700000041200000000089
:100EC00000000000610200000000FFFF0000630856
:100ED00000000000000000006B080000000000009F
:100EE0000000730800000000000000007B08000004
:100EF000000000000000830205000000580200000E
:100F000085010000000010000000860200000000C3
:100F100032000000880200000000320000008A0257
:100F2000000000000A00000000C9B7030000554996
:100F30000300020B02020000CF420500010B020277
:100F40000000CF420500034186030000CF420500A8
:100F500004873E050004813E0500000B02020001EB
:100F6000993E050001933E050001CF42050001CFE7
:100F700042050001CF42050000E984040001CF4290
:100F8000050001CF420500010B02020001CF42051E
:100F90000001CF42050002993E050002933E050084
:100FA00002CF42050000E984040002CF420500029E
:100FB000CF420500027579040002CF420500020B02
:100FC00002020004813E050002CF42050003993E63
:100FD000050003933E0500030B020200030B02020F
:100FE0000003CF420500034186030003CF42050002
:100FF00000E984040003CF42050003CF420500034B
:10100000CF42050004993E050004933E0500040B01
:10101000020200040B020200040B020200040B0295
:101020000200047579040004CF420500040B02029B
:101030000004813E050000E9840400FF2400000054
:101040008934050000000000250000007D2A05000D
:101050000000000036000000ED2A0500000000003E
:1010600041000000052401000000000042000000D3
:101070004945040000000000440000007D5A0400BF
:10108000000000004500000095340500000000004D
:1010900052000000CD9C040000000000530000003E
:1010A00085910400000000005400000009C4040001
:1010B000000000005F00000049FA0400000000008A
:1010C0007200000039CE0300000000005615000039
:1010D0008D2A050000000000571500009D2A05001C
:1010E0000000000058150000AD2A050000000000B7
:1010F00059150000BD2A0500000000005A15000027
:10110000CD2A0500000000005C150000DD2A050066
:10111000000000005D1500006D30050000000000BB
:101120005E150000B9EE0400000000005F1500002D
:10113000DDEE040000000000AB1500005D8202003F
:1011400000000000FF00000000000000000100009F
:1011500000808080808080808080909090909080BF
:10116000808080808080808080808080808080807F
:10117000801804040404040404040404040404049F
:101180000402020202020202020202040404040433
:1011900004044343434343434141414141414141AD
:1011A0004141414141414141414141410404040423
:1011B000040423232323232321212121212121214D
:1011C0002121212121212121212121210404040483
:1011D000800000000000000000000000000000008F
:1011E00000000000000000000000000000000000FF
:1011F00000000000000000000000000000000000EF
:1012000000000000000000000000000000000000DE
:1012100000000000000000000000000000000000CE
:1012200000000000000000000000000000000000BE
:1012300000000000000000000000000000000000AE
:10124000000000000000000000000000000000009E
:1012500000454300982F8A4291443771CFFBC0B5B7
:10126000A5DBB5E95BC25639F111F159A4823F9271
:10127000D55E1CAB98AA07D8015B8312BE853124CA
:10128000C37D0C55745DBE72FEB1DE80A706DC9B8B
:1012900074F19BC1C1699BE48647BEEFC69DC10F37
:1012A000CCA10C246F2CE92DAA84744ADCA9B05C73
:1012B000DA88F97652513E986DC631A8C82703B036
:1012C000C77F59BFF30BE0C64791A7D55163CA0644
:1012D00067292914850AB72738211B2EFC6D2C4D50
:1012E000130D385354730A65BB0A6A762EC9C2813E
:1012F000852C7292A1E8BFA24B661AA8708B4BC2D4
:10130000A3516CC719E892D1240699D685350EF4FD
:1013100070A06A1016C1A419086C371E4C774827B4
:10132000B5BCB034B30C1C394AAAD84E4FCA9C5B2A
:10133000F36F2E68EE828F746F63A5781478C8847B
:101340000802C78CFAFFBE90EB6C50A4F7A3F9BE5D
:10135000F27871C60097B92EE5725CCB5DCAE47372
:10136000B82F0196BA2D03945FC8E671E7705EC985
:101370000295BB2CE3745ACD0691BF28BE29079075
:101380005BCCE27559CEE077BC2B05920493BD2A65
:10139000E17658CF51C6E87FB4230D9A0C9BB52255
:1013A000E97E50C7EB7C52C50E99B720B6210F9845
:1013B00053C4EA7DB2250B9C57C0EE79EF7856C135
:1013C0000A9DB324089FB126ED7A54C355C2EC7B25
:1013D000B027099EA2351B8C47D0FE69FF6846D115
:1013E0001A8DA334188FA136FD6A44D345D2FC6B05
:1013F000A037198E41D6F86FA4331D8A1C8BA532F5
:10140000F96E40D7FB6C42D51E89A730A6311F88E4
:1014100043D4FA6DF3644ADD1681AF38AE391780D4
:101420004BDCF26549DEF067AC3B15821483AD3AC4
:10143000F16648DF1087A93EF5624CDB4DDAF463B4
:10144000A83F1186AA3D13844FD8F661F7604ED9A4
:101450001285AB3C0001363601010001020100019A
:101460000301000104010606080400000C01003419
:101470000D01000F10040101140100FF1608000007
:1014800020020000220100FF23010001240100FED0
:1014900025010008260200002801000129010001A1
:1014A0002A0200002C01000F2E0200003001000172
:1014B00031010008320200FF34010007350102FF4C
:1014C000360100003701000138010001390100FF39
:1014D0003A01000F3C0200FF3E01010F3F010001F5
:1014E0004001041F41010001420100FF430100804F
:1014F000440800004E0100084F01000F5001000198
:10150000510100FF5201000A5301008954010001FA
:10151000580400005C040000600400006404000043
:10152000680400006C0400007004000074040000F3
:10153000780400007C040000800100FF81010001AC
:101540008201000183010102840100012D2D2D2D56
:101550002D424547494E204543205052495641545B
:1015600045204B45592D2D2D2D2D0D0A4D486343FA
:1015700041514545494576624A3953472F71657552
:1015800064367A336F52622B73524F786B362F4822
:1015900057485157746375634446713367727A6F65
:1015A0006F416F4743437147534D34390D0A4177BB
:1015B00045486F555144516741454C573636697619
:1015C0006D646F46732F61344C307548344A4670F1
:1015D000395A473842456139655A42612B77706AFA
:1015E000544F7434414A6A4D6B74504A75660D0A03
:1015F0003741574B624F563148534D42666A382F38
:101600004C6D4A704F4336557066714E4469354A89
:101610006D673D3D0D0A2D2D2D2D2D454E44204548
:10162000432050524956415445204B45592D2D2DAC
:101630002D2D00FF020000009C2800000300000088
:101640004429000004000000EC290000050000000F
:1016500064280000060000000C29000007000000BC
:10166000B42900000E000000B82800000F000000A0
:101670006029000010000000082A00002B00000074
:10168000802800002C000000282900002D00000008
:10169000D0290000480000005C2A0000490000003A
:1016A000782A00004A000000D42800004B00000007
:1016B0007C2900004C000000242A00004D0000009E
:1016C000F02800004E000000982900004F000000A4
:1016D000402A000000000000000000006861726401
:1016E0007761726520657863657074696F6E2069D3
:1016F00064203D2025642C207063203D2030782517
:1017000030387820282F6D6E742F74697265782DAB
:10171000636F6E74656E742F73696D706C656C6940
:101720006E6B5F6363313378785F636332367878EA
:101730005F73646B5F375F34305F30305F37372FF4
:101740006B65726E656C2F746972746F73372F706E
:1017500061636B616765732F74692F737973626955
:101760006F732F66616D696C792F61726D2F6D33A8
:101770002F4877692E633A313039322900257800B5
:1017800038C40D00C80000008100000032000501CF
:1017900038C40D00C80000008100000032000F01B5
:1017A00038C40D00C800000081000000640005017D
:1017B00038C40D00C80000008100000064000F0163
:1017C00038C40D00C800000081000000960005012B
:1017D00038C40D00C80000008100000096000F0111
:1017E00038C40D00C800000081000000C8000501D9
:1017F00038C40D00C800000081000000C8000F01BF
:1018000038C40D00C8000000810000002C01050153
:1018100038C40D00C8000000810000002C010F0139
:1018200048776920616C72656164792064656669D6
:101830006E65643A20696E74722320256420282F17
:101840006D6E742F74697265782D636F6E74656E3A
:10185000742F73696D706C656C696E6B5F63633157
:101860003378785F6363323678785F73646B5F37A1
:101870005F34305F30305F37372F6B65726E656C69
:101880002F746972746F73372F7061636B61676552
:10189000732F74692F73797362696F732F66616D2B
:1018A000696C792F61726D2F6D332F4877692E63C4
:1018B0003A33383529006E6F204953522C20696421
:1018C000203D2025642C207063203D203078253079
:1018D000387820282F6D6E742F74697265782D63A7
:1018E0006F6E74656E742F73696D706C656C696E64
:1018F0006B5F6363313378785F6363323678785F28
:1019000073646B5F375F34305F30305F37372F6B16
:1019100065726E656C2F746972746F73372F7061A6
:10192000636B616765732F74692F73797362696F75
:10193000732F66616D696C792F61726D2F6D332F16
:101940004877692E633A3130393529006F75742034
:101950006F66206D656D6F72793A20686561703DC4
:10196000307825782C2073697A653D257520282FDD
:101970006D6E742F74697265782D636F6E74656E09
:10198000742F73696D706C656C696E6B5F63633126
:101990003378785F6363323678785F73646B5F3770
:1019A0005F34305F30305F37372F6B65726E656C38
:1019B0002F746972746F73372F7061636B61676521
:1019C000732F74692F73797362696F732F72756ED9
:1019D00074696D652F4D656D6F72792E633A373876
:1019E0002900696E746E756D3A2025642069732034
:1019F0006F7574206F662072616E676520282F6D89
:101A00006E742F74697265782D636F6E74656E7471
:101A10002F73696D706C656C696E6B5F63633133D6
:101A200078785F6363323678785F73646B5F375FB3
:101A300034305F30305F37372F6B65726E656C2FD7
:101A4000746972746F73372F7061636B616765734C
:101A50002F74692F73797362696F732F66616D6973
:101A60006C792F61726D2F6D332F4877692E633A31
:101A700033373729000C5A9E593E0500E9E504002A
:101A8000C184010000000000A9010500C93F040055
:101A9000D104040000000000811D050025EE0300B4
:101AA0004981030028000000A5F30400611B040025
:101AB00011D403002E00000089010500195504000F
:101AC000C9EC02003C0000007122050035800400D2
:101AD000D16E03007C000000F9CA0400C1D90300E4
:101AE0005D0404004C00000069BE040029400400AD
:101AF000715504008400000071D80400F51A040038
:101B0000616104009C000000FFFFFFFFFFFFFFFF7B
:101B100000000000000000000000000000000000C5
:101B200000000000000000000000000000000000B5
:101B30000000000000000000140000000000000091
:101B40000000000000000101000000000000000093
:101B50000000000000000000000000000000000085
:101B60000000000000000000000000000000000075
:101B70000000000000000000000000000000000065
:101B800000000000000000000000007800080200D3
:101B900030000A00F8340000030000000E2D0000A1
:101BA000302E000000010000F434000003000000AB
:101BB00084300000DD32000004000000F03400003A
:101BC00003000000782E00000B2E0000000800002B
:101BD00004350000030000007D2D0000E12E000010
:101BE00020000000FE32000009000000922D0000DD
:101BF0006E2B000000000100FC3400000300000018
:101C00003A2B0000682D00000800000000000000D2
:101C100000000000000000000000000000000000C4
:101C2000360001000600000000000000000F000068
:101C300000000000000000000000000000000300A1
:101C4000FFFF00000403FFFF0000FFFF0F00E80399
:101C50000005401F0310000101000000FF3F0F00BE
:101C600008000E0000000000000000000300010F4B
:101C7000000009010000000000000000000000005A
:101C80000000000000000000000000000000000054
:101C90000000000000000000000000000000000044
:101CA000AD000001000000007F7F7F7F7F7F7F7F8E
:101CB0007F7F7F7F7F7F7F7F7F7F7F7F7F7F7F7F34
:101CC0007F7F7F7F7F7F7F7F7F7F7F7F7F7F7F7F24
:101CD0007F7F7F3E7F7F7F3F3435363738393A3BD1
:101CE0003C3D7F7F7F407F7F7F000102030405062C
:101CF0000708090A0B0C0D0E0F10111213141516FC
:101D00001718197F7F7F7F7F7F1A1B1C1D1E1F20C6
:101D10002122232425262728292A2B2C2D2E2F303B
:101D20003132337F7F7F7F7F0000000000000000A2
:101D3000201C0000000000004038000000000000EF
:101D4000602400000000000080700000000000001F
:101D5000A06C000000000000C0480000000000006F
:101D6000E05400000000000000E10000000000005E
:101D700020FD00000000000040D90000000000002D
:101D800060C500000000000080910000000000001D
:101D9000A08D000000000000C0A9000000000000AD
:101DA000E0B5000000000000E1F2010071FC02005B
:101DB00000000000000000000000000011140500F9
:101DC000C51E05001DD50300413405001142050064
:101DD0000B420500691A050000000000FF410500E4
:101DE0004DE90300D5590400A9F9040099D4030072
:101DF00039240500314A0300CD5F0200A11404001C
:101E000009FA04000000000081860400F9130500AF
:101E10006DA1030000000000010000000E000000A2
:101E20000B000000010000000C0000000900000091
:101E3000030000000100000001000000010000009C
:101E4000010000000200000004000000110000007A
:101E5000120000000100000001000000010000006D
:101E6000010000000100000001000000010000006E
:101E70001400000013000000000002000000040035
:101E80000200020000003200040001000000020015
:101E90000000000000000000050001000000070035
:101EA0000600010000000300070008000000000019
:101EB0000F0001000100FF001000080000000000FA
:101EC00018000800000000002200020000000000CE
:101ED0000010004015000000FF000000D8B60120EF
:101EE0008000000058B701208000000000000000C2
:101EF0000C0000000D000000FF000000FF000000CB
:101F0000201800201018002004000000020000002B
:101F100005000000100000000F000000110000008C
:101F200012000000000200008E0000008E00010080
:101F30008E0002008E0003008F0000018F0000025F
:101F40008F0000038E0001048E0000058E0008043F
:101F50008E00000489000006500000007F00010090
:101F60003F0004003F0002003F0001007F0002002C
:101F70008E0002048E0001028E000101E732000093
:101F800009000000F9300000EC34000001000000FE
:101F90001C34000007000000A2300000B130000037
:101FA0000200000096340000050000000C34000020
:101FB00034300000030000000000000000000000BA
:101FC00000000000000000000000000004340000D9
:101FD000070000002430000014300000040400005A
:101FE0001B330000080000001E2E0000662E0000BB
:101FF000050400002D330000080000009C2E0000A6
:102000008A2E00000604000000000000000000000E
:10201000000000000000000000000000000000FFC1
:102020000001010300010203FF0303030001020397
:102030000001010300010203FF030303B7210000B5
:10204000B7210000FD210000FE210000000000007B
:10205000040000000800000000000000AD1D0500A5
:10206000D9280400D5E40100FD250500E93A050062
:102070006F3E0500693E0500000000000000000002
:102080000000000000000000000000000000000050
:10209000000000000D3205000132050038333335F1
:1020A00044433136334242313234423635313239AB
:1020B0004339364644453933334438443732334163
:1020C000373041414443383733443644353441375F
:1020D0004242304400736571282575292044282523
:1020E0006429205258202825642C202575292C206D
:1020F0005458202825642C25752920686F702825C0
:102100006429204C656E28256429002A2A2A204249
:10211000522063616E206E6F7420666F72776172F9
:10212000642072782D736571282575292070726579
:10213000762825752920696E2077696E646F77008F
:10214000073800000000000000000000000121032B
:102150000F008000520798E00800FFFF10D5012013
:102160009603990505000000C4D50120B0D50120D3
:10217000043800000000000000000000000188F9A1
:102180004E90550000000000FF0710580000FC01B1
:10219000000000000000000000000000000000003F
:1021A0005449574953554E46414E2F312E302E3209
:1021B0003B2052454C454153453B20417072202005
:1021C0003920323032342030373A33343A31380023
:1021D0000400000090340000414305004142050026
:1021E000DD1202005F030500000000000000000097
:1021F000396A03003D080500791505003D1F0500FB
:102200000200000051120000414305009115050035
:10221000ADAE0400359E0400000000000000000088
:10222000396A030059080500A91505003D1F05007E
:10223000030000009C34000041430500673A05009C
:10224000000000000000000000000000000000008E
:10225000396A030059080500A91505003D1F05004E
:10226000544C532D45434448452D45434453412D3B
:10227000574954482D43484143484132302D504F2F
:102280004C59313330352D53484132353600544C9A
:10229000532D45434448452D50534B2D57495448E1
:1022A0002D43484143484132302D504F4C59313332
:1022B00030352D534841323536000008013B0500CA
:1022C000B73E050019C30400A9F804004D7A0400C4
:1022D0003913050035140400957A04003D320500D9
:1022E0006DF00200483300000800000008330000D1
:1022F00008330000030000000000000000000000A0
:10230000000000000000000000000000544C532DAD
:1023100045434448452D45434453412D574954486E
:102320002D4145532D3132382D4342432D534841E1
:1023300032353600544C532D45434448452D4543D2
:102340004453412D574954482D4145532D3132387E
:102350002D47434D2D534841323536003E3E3E20F9
:102360004461746120496E642073726350616E49E8
:10237000442025753A206D792050616E4944282506
:10238000752900544C532D45434448452D50534B1B
:102390002D574954482D4145532D3132382D434254
:1023A000432D53484132353600544C532D50534B36
:1023B0002D574954482D43484143484132302D5010
:1023C0004F4C59313330352D534841323536005456
:1023D0004C532D45434448452D45434453412D57C7
:1023E0004954482D4145532D3132382D4342432D18
:1023F00053484100544C532D45434448452D4543D3
:102400004453412D574954482D4145532D323536BB
:102410002D4342432D534841003D3D2072782D739A
:102420006571282575292070726576282575292003
:102430006E6F7420696E2077696E646F77000A0092
:10244000010000000100000000000000000000008A
:102450000000000001000000010000000100000079
:1024600001000000000000007700000000000000F4
:10247000000000000E00000001000000000000004D
:102480001D0000000000000000000000000000002F
:102490000000000001000000000000000002000039
:1024A000000000000000000001000000544C532D0B
:1024B00045434448452D50534B2D574954482D41D1
:1024C00045532D3235362D4342432D534841005458
:1024D0004C532D45434448452D45434453412D57C6
:1024E0004954482D4145532D3235362D43434D2D0A
:1024F0003800544C532D45434448452D50534B2DE3
:10250000574954482D4145532D3132382D434243CC
:102510002D53484100544C532D45434448452D45C7
:10252000434453412D574954482D4145532D313291
:10253000382D43434D2D38003D3D3D2072782D739D
:1025400065712825752920707265762825752920E2
:10255000696E2077696E646F7700544C532D454344
:102560004448452D45434453412D574954482D4136
:1025700045532D3132382D43434D00544C532D4596
:10258000434448452D45434453412D574954482D14
:102590004145532D3235362D43434D00033800005D
:1025A00000000000000000008201081014000084F8
:1025B000000000004E9055000000000002000000E6
:1025C00015430500099D040000000000B107050047
:1025D0007B3005009507050031150500020000005D
:1025E000000000000000000000000000358E040024
:1025F000358E040009FB040041D2040009000000EC
:102600000000000000000000533A050049150500D5
:1026100049150500050805006DEF040009000000DC
:10262000000000000000000000000000611505002F
:102630006115050021B9040005AE0400FFFFFFFF8E
:102640000000000000000000000000003A013A0114
:102650000000000000000000000000000200000078
:10266000000000000000000000000000F5FF020074
:10267000F5FF020045F00400C5D20400020000008E
:102680000000000000000000000000004D420500B6
:102690004742050069FC0400391605004B60D2274B
:1026A0003E3CCE3BF6B053CCB0061D65BC8698765A
:1026B00055BDEBB3E7933AAAD835C65A96C298D817
:1026C0004539A1F4A033EB2D817D0377F240A4635B
:1026D000E5E6BCF847422CE1F2D1176BF551BF3764
:1026E0006840B6CBCE5E316B5733CE2B169E0F7C37
:1026F0004AEBE78E9B7F1AFEE242E34F512563FCD3
:10270000C2CAB9F3849E17A7ADFAE6BCFFFFFFFF6C
:10271000FFFFFFFF00000000FFFFFFFFFFFFFFFFC5
:10272000FFFFFFFFFFFFFFFF0000000000000000B1
:102730000000000001000000FFFFFFFF544C532D7C
:1027400050534B2D574954482D4145532D31323864
:102750002D47434D2D53484132353600544C532DAF
:1027600050534B2D574954482D4145532D31323844
:102770002D4342432D534841323536002D2D2D2D0A
:102780002D424547494E2045432050524956415419
:1027900045204B45592D2D2D2D2D00544C532D509A
:1027A000534B2D574954482D4145532D3132382D27
:1027B0004342432D534841002D2D2D2D2D454E4490
:1027C0002045432050524956415445204B45592DF0
:1027D0002D2D2D2D00544C532D50534B2D57495416
:1027E000482D4145532D3235362D4342432D534814
:1027F000410074692E73797362696F732E6B6E6C0E
:102800002E5461736B2E49646C655461736B0000C8
:10281000040000000800000010000000000000009C
:10282000040000000800000010000000400D03003C
:10283000801A0600C0270900A086010090D003007E
:1028400000350C00804F1200053800000000000029
:102850000000000000000000000000000000000078
:102860000000000005020000800000006C32000043
:10287000100000000000000010000000BC25000057
:102880002B08000080000000543200000C00000003
:102890000100000010000000DC2500000201000023
:1028A0008000000030320000000000000000000046
:1028B00010000000BC2500000E0600008000000093
:1028C000243200000C000000010000001000000095
:1028D0005C2600004A0B000080000000A8320000C7
:1028E0000000000000000000100000007C26000036
:1028F0004D0C000080000000483200000000000085
:1029000000000000100000007C260000060200000D
:10291000C0000000003200001000000000000000B5
:1029200010000000BC2500002C080000C0000000C2
:10293000D03100000C000000010000001000000079
:10294000DC25000003010000C00000006032000030
:10295000000000000000000010000000BC25000086
:102960000F060000C0000000DC3100000C00000079
:1029700001000000100000005C2600004B0B00006E
:10298000C0000000BE320000000000000000000097
:10299000100000007C2600004E0C0000C00000006B
:1029A0000C320000000000000000000010000000D9
:1029B0007C2600000702000000010000C431000076
:1029C000100000000000000010000000BC25000006
:1029D0002D08000000010000E83100000C0000009C
:1029E0000100000010000000DC25000004010000D0
:1029F00000010000F43100000000000000000000B1
:102A000010000000BC2500001006000000010000BE
:102A1000183200000C00000001000000100000004F
:102A20005C2600004C0B000000010000B3320000E7
:102A30000000000000000000100000007C260000E4
:102A40004F0C0000000100003C32000000000000BC
:102A500000000000100000007C2600004807000075
:102A600000010000243300000C0000000000000002
:102A700001000000FC250000490A000000010000E0
:102A8000422E00000C0000000000000001000000C9
:102A90001C26000069643A20307825782061303A9D
:102AA00020307825782061313A20307825780A0066
:102AB0002D2D2D2D2D424547494E2050524956412E
:102AC0005445204B45592D2D2D2D2D002D2D2D2DCF
:102AD0002D424547494E20434552544946494341BA
:102AE00054452D2D2D2D2D0000000000000000006C
:102AF000E8030000000000000000000000000000EB
:102B000000000000544C532D50534B2D574954484E
:102B10002D4145532D3235362D43434D2D3800542C
:102B20004C532D50534B2D574954482D4145532D4F
:102B30003132382D43434D2D380069642D63652DA6
:102B40006365727469666963617465506F6C69630B
:102B5000696573002D2D2D2D2D454E442043455282
:102B600054494649434154452D2D2D2D2D004E6588
:102B7000747363617065204365727469666963612B
:102B800074652054797065002D2D2D2D2D454E44F2
:102B90002050524956415445204B45592D2D2D2D3D
:102BA0002D002D2D2D2D2D424547494E20583530D5
:102BB000392043524C2D2D2D2D2D00544C532D508A
:102BC000534B2D574954482D4145532D3235362D01
:102BD00043434D00544C532D50534B2D57495448AB
:102BE0002D4145532D3132382D43434D001A1B2AB8
:102BF0002B034A4B051A1A1A1A1A1A1A1A1A1B2ADE
:102C00002B034A4B050000000308000000000000F1
:102C100000000000000196033433000000000000B3
:102C20006400000081B70400000000005B15000094
:102C3000697E03000000000064000000C3970400E8
:102C4000000000005B15000011C60300000000003A
:102C5000000000000002081000BE0208010200038C
:102C60000200010300204060030017000001000083
:102C70000833000000000000000000000000000019
:102C80000000000000000000000000000000000044
:102C90000E0000000B00000000000000000000001B
:102CA0000100000000000000E00000000100000042
:102CB000FF0000000000000080A90300FF000000EA
:102CC0000000000080A903000000000000010101D5
:102CD00001000001010000000000000000000000F1
:102CE0005061697277697365206B657920657870CA
:102CF000616E73696F6E0050726F632D54797065E9
:102D00003A20342C454E435259505445440069648E
:102D10002D63652D6261736963436F6E73747261B5
:102D2000696E7473002D2D2D2D2D454E4420583580
:102D300030392043524C2D2D2D2D2D0001007000D7
:102D400050000400030060000200000005000600BF
:102D50000700636C69656E742045415020656E63A1
:102D600072797074696F6E00436572746966696325
:102D700061746520506F6C69636965730069642DC7
:102D800063652D7375626A656374416C744E616D21
:102D9000650069642D6E657473636170652D63658C
:102DA00072747479706500547853657128256420B5
:102DB00054782825642C256429292000020000006D
:102DC0000000000000000000FFFFFFFF0000000007
:102DD00000010801100120014001800100020004EF
:102DE000FEFFFFFF000000000000000000000000E8
:102DF0000500000000000000001610160E18151C3B
:102E00000212032428600302100260457874656E84
:102E1000646564204B65792055736167650065635F
:102E20006473612D776974682D53484132323400E0
:102E3000426173696320436F6E73747261696E746B
:102E4000730043484143484132302D504F4C593173
:102E5000333035007061655F6672616D655F636F09
:102E6000756E7465720045434453412077697468F8
:102E7000205348413232340069642D63652D6578F2
:102E8000744B657955736167650045434453412030
:102E9000776974682053484132353600656364733E
:102EA000612D776974682D534841323536002020F2
:102EB0002020202020202020202020202020003022
:102EC0003132333435363738394142434445460090
:102ED0003031323334353637383961626364656690
:102EE000005375626A65637420416C74204E616D95
:102EF00065000000FF03000000000000000000006B
:102F0000000000FCFF0100000000000000000000C5
:102F100000000001FF0100000000000000000000B0
:102F200000000002FF02000000000000000000009E
:102F300000000001FF02000000000000000000008F
:102F400000000002FF02000000000000000000007E
:102F50000000001A00000000000000000000000057
:102F600000000001FF03000000000000000000005E
:102F700000000001FF03000000000000000000004E
:102F800000000002FF05000000000000000000003B
:102F9000000000020000000000000000000000002F
:102FA00000000000A4AC0120B02C000028AD0120DE
:102FB000BC2C00000200000000000000FFFFFFFF2B
:102FC000000000000505020032003200040001018B
:102FD0000000FF0701050A19010A1428010F1E3C11
:102FE00002143264F0000000FFFFFF0FFFFFFF0F2D
:102FF00000080000000000000000000000000000C9
:10300000000000006B65795F73747267655F696EBD
:1030100064657800454344534120776974682053C0
:103020004841310065636473612D776974682D537D
:10303000484131004543206B657920666F72204519
:10304000434448007365727665722066696E6973E1
:1030500068656400417373657274206661696C65AC
:10306000643A2000636C69656E742066696E6973EA
:1030700068656400AEC000000000000000000000B1
:103080000000000069642D63652D6B6579557361DF
:103090006765004572726F72207261697365643A88
:1030A000200069642D65635075626C69634B6579B6
:1030B0000047656E65726963204543206B65790042
:1030C0006B65795F73746F726167655F303000574D
:1030D000692D53554E46414E2F312E30006B657988
:1030E00020657870616E73696F6E006D61737465D1
:1030F000722073656372657400727361456E6372EA
:10310000797074696F6E0000FF020000000000001B
:1031100000000001FF7061655F6262725F696E6648
:103120006F000000496E697420436F756E7465729C
:10313000000000005C0000006C0000006C0000005B
:10314000D4330000DC330000E43300000022000030
:1031500030220000D0210000000200000004000026
:1031600000080000F6230000F9230000F823000007
:1031700000000000000000000000FFFFBC22000073
:1031800042C00120EC330000FF00010029140500BB
:1031900007000000C8010000D543050039E604001F
:1031A00000000000E378040059F30300291704002D
:1031B000698D0400F12E03002917040000000000AF
:1031C000F12E03004145532D3235362D4342430045
:1031D0004145532D3139322D43434D004145532D47
:1031E0003139322D47434D004145532D3235362D6F
:1031F00043434D004145532D3235362D4543420062
:103200004145532D3139322D434243004145532D21
:103210003139322D4B5750004145532D3235362D23
:1032200047434D004145532D3132382D47434D0022
:103230004145532D3132382D454342004145532DF0
:103240003235362D4B5750004145532D3132382DF4
:103250004B5750004145532D3132382D43434D00DB
:103260004145532D3139322D454342004145532DBF
:103270003132382D434243007061655F6E775F697C
:103280006E666F00000000000000000000000000FB
:103290000000000000000000000000000700230202
:1032A00022020D280F280E284145532D3132382D8A
:1032B0004B57004145532D3235362D4B5700414574
:1032C000532D3139322D4B57000100000000060705
:1032D00000000A010101040000010002024B6579AF
:1032E000205573616765002A864886F70D01010144
:1032F00000000000416E6F6E796D6F75730060861F
:10330000480186F8420101007365637032353672F8
:1033100031000001040704040202022A8648CE3D5F
:10332000040301004348414348413230002A8648A3
:10333000CE3D040302007061655F6B657973002BFD
:1033400006010505070804002A8648CE3D0301074B
:103350000000000000D5012004D50120FE800000FF
:1033600000000000B4BE01203708000004C00120A6
:103370003B1000004CBF012033160000A6A6A6A6F5
:10338000A6A6A6A664A60120D01E000074BF012038
:103390002C340000242F0000042F0000AEC00000D9
:1033A0000000000000000208354525150C0E08112C
:1033B000000105094500230037001B000004081028
:1033C000000408100000000000000000FF000000E2
:1033D00000000000CC34000004144000573400000A
:1033E000051C4000503400000620400000800A0008
:1033F00000400000933000005430000065636B65AE
:10340000792E51002A8648CE3D04010069642D655D
:1034100063444800286572726F7229002A8648CE7C
:103420003D02010051B80400E11305000000024014
:103430000929FF000408100004081001010202031A
:103440000404FDFFFFFFFFFFFF77735F746C7300E1
:1034500053484132353600534841323234001B5B09
:10346000306D0A0D00286E756C6C2900040A10007E
:103470000006FFFF00018000260012000C00810002
:1034800040002A00000000FFFE000000009EACACDF
:103490004543445341002B8104010C0045435F44E4
:1034A0004800253032783A0025642E256400551DE9
:1034B00020000002005EFFFE000602868200081067
:1034C00018204D527348003938414100534841316A
:1034D000000001020304000022000100440001007A
:1034E000CB3105002E2564002F2575005253410075
:1034F000551D2500551D0F00551D1300551D20009D
:0C35000055040300551D110008CE0120E9
:08350C000000000000000000B7
:103520002DE9F04FA7B0DFF8841D8146DFF8808DCC
:103530004FF6FF72C8684844C860B8F8740081B29A
:103540004945CDF81C9005D9A0EB0900A8F87400F6
:1035500001F00FBBA9EB00000A23093ADFF854ADD4
:103560004FF0000981B2B1FBF3F101FB02004D1CE9
:10357000DFF8441DC0F10A005831A8F87400E8B221
:103580000A90DFF8380D12AF1191183050F0C6F9DB
:1035900000F050859BF80C00002840F046849BF812
:1035A0003000000740F14184DBF86001002800F0A2
:1035B000B4839BF82C00032840F0F182DBF864010F
:1035C000002800F0EC82DAF844005146A84202D903
:1035D000401B4864D3E23C204864DFF8D00C4068CC
:1035E00000284CD0119849F0CDFF00285BD0DFF8BF
:1035F000CC6CDFF8CC1C082206F1400420464EF0CB
:103600003DFD28B1584621463FF080FDC6E910999E
:10361000DFF8A40CDFF8A81C4FF076FEA0B15846E6
:103620002CF0C0F898F96220002A09D41520402116
:103630000023CDE90299CDE90009204649F06EFE4C
:10364000DFF8740CC0E91299119CDFF8741C082291
:1036500020464EF013FD48B1584621463FF056FD36
:10366000DFF8540CC0E91699C0E91899DFF83C0C52
:103670004068002800F083824CF0DAFE34E21198B2
:10368000DFF83C1C10224EF0F9FC30B3DFF8340CAC
:10369000DFF8341CDFF8146C4162DFF8300CDFF81F
:1036A000301C4162BEE1BE48CDE91299CDF854907C
:1036B000149014A843F02CFF98F862001AA944B2A1
:1036C000204647F067FB98B1DFF8F41B384650F00E
:1036D000EEFC28B3CAF848903AE0002043F018FF07
:1036E000002800F061810146119850F0E7FB87E166
:1036F00020464FF0F3F8E7D0806B1AA94DF009FC93
:103700000028E1D080690028DED01AA814A950F062
:10371000CEFC0028D8D0DDE91A01CDE91201D3E7AB
:10372000DAF8480054463C30CAF84800002043F01C
:10373000EFFEDAF8480058B1DFF87C0BDFF8801BA9
:10374000082248304EF09AFCDDE91401CDE912015F
:10375000DFF8640B39464FF0D7FDDFF8641B0646EF
:10376000204650F0A4FC002E00F00A81C0B1DFF822
:103770003C0B2146012240684EF04EF898F9622039
:10378000002A0AD4152040210023CDE90009782021
:10379000CDE90209204649F0C1FD58462CF002F857
:1037A000DFF81C1B384650F082FC002800F0D68160
:1037B00098F96220002A0ED4152040210023CDE97B
:1037C00000094FF0FF30CDE90209384649F0A6FD67
:1037D000002800F0D481DBF8600148F2FE02169266
:1037E000DFF8F02AD0F80805466CDBE94801CDE99E
:1037F000179080F00200199101218DF860009BF86C
:103800000D0047B21090384624F04AFC0446384672
:103810004FF064F800F09B812246044698F834008B
:10382000FF280CD1DFF8B00A01210F943446164668
:1038300038F0F8FC324626460F9C88F8340041B236
:10384000002900F17E81DFF8941A896D01BB022105
:10385000CDF87490CDF86C908DF868008DF87010EC
:1038600001218DF86B104FF40071ADF869101AA8A2
:103870004FF47A710F943446164649F00DFD3246E6
:103880002646DFF8581A0F9C0028886500F05981F9
:10389000CDE90E2612AE384650F042FC074600280D
:1038A0005AD184204EF044FC074610204EF040FCD4
:1038B0000646002F00F04081002E00F03D810221DD
:1038C00004F59070C7F83090C7E90A697983102130
:1038D00039734FF4E151F961C8213961394641F832
:1038E000449FB964394641F83C9F3964394641F8F0
:1038F000349FB963797801F0FC0179708378D4F84A
:103900002011D4F82421BB750088B88294F82701CF
:103910007876B4F825017E62A7F81700387D80F02C
:10392000020038754FF4C060C6F80620C6F80210D1
:1039300030801C483862DDE91201C7E901011098A6
:10394000DFF89C193870886E0760C7F88000384629
:1039500040F87C9F886612AE0E98314678809BF9BD
:103960000D40204648F0A0FE002800F0C280DFF89D
:103970007419C162DFF8701901639BF80D40B9E05A
:10398000002800F0FC80DFF824092146002240686E
:103990004DF042FF5846214628F0A8FEEFE000BF58
:1039A0002020ABCD03000A00DFF81009DBF83860F7
:1039B0004022002300F148043046214630F022F92D
:1039C00028B1014630464DF0A4FA074648B94EF0FA
:1039D00065FF0220019058461FF00AFE07460028A6
:1039E00077D04EF05BFF584641F0F3FE2046402171
:1039F000022224233BF0C0FB119897E81E001EC052
:103A0000DFF8C808DFF8C818DFF8A0684162DFF8FF
:103A1000B408DFF8B4184162706818B14CF008FDC2
:103A2000C6F80490DFF89008B668119A0121B0F842
:103A30004040306846F095FF074630B930460121D6
:103A400041F0DEFB074600284ED0F86911994AF094
:103A5000B3FC28B190F82D10C90745D140F0C4F946
:103A600011993846882239F003F8E8B30646DFF8A2
:103A700048080022002300F1380130462DF0A6FB53
:103A800096F82D00C1070DD140F0010086F82D00F9
:103A90003068806A4FF0DAF896F82D0040F00200A6
:103AA00086F82D003046F02135F08EFEC8B1014673
:103AB000384622463DF04FFCDFF820084FF48031B5
:103AC000C0E91319DFF8E407F0214660584643F0D7
:103AD0008DF9DFF8D807406812AF00287FF482AD77
:103AE0004DE0304640F080F9DFF8C007C0F80490A0
:103AF00045E0E4B260B250F013FB28B1417801F028
:103B0000FC0141709BF80D400F9A60B231464EF0B7
:103B1000CDFB9BF90D0050F003FB10B14FF6FD718A
:103B200001615846314628F0E1FD9BF80D00314611
:103B300016AA26F0CFFF0AE050F046FB50F038FB03
:103B40000E9A22B110462FF09BFD4BF02DFEDFF8B0
:103B50005C070022406812A94DF05EFEDDE912010B
:103B6000DFF85427C2E91201584640F0FDF99BF9ED
:103B70000D00DFF87817DFF8782742F0CBF9DFF88F
:103B80002C07406858B1DBF86001B0F88614A942F0
:103B900087BF491BA0F88614584640F0E5F9DBF8CA
:103BA0006001D0F8881479B3A94226D9491B0A22AA
:103BB000C0F88814DBF86001D0F88814D0F8080544
:103BC000808EB0FBF2F081421ED2DBF864412468A3
:103BD000D4B104F14C000668002EF8D0B08C400738
:103BE00008D5F06A30B1142804D30120142149F01B
:103BF000ECFFF06206F13C00EDE7C0F88894052088
:103C00009BF90E104AF092FFDBF86001B0F88414C3
:103C100059B1A94203D9491BA0F8841405E0A0F8C2
:103C200084945846002135F07FFADBF86001D0F823
:103C30007C1459B1A94203D9491BC0F87C1405E092
:103C4000C0F87C94DBF86001A0F88094B8F87600A6
:103C500060B1A84201D9441B06E00020002449F0CD
:103C60006BFA012049F068FAA8F876409BF8340016
:103C7000092809D80A21DFE800F00E1105111111F9
:103C80000B11110D0C2106E01A2807D10E2102E0BC
:103C90000D2100E00B2158463AF0DAFDDBF8600117
:103CA000D0F88C140131C0F88C1458464EF0E6FC64
:103CB00030D0816ED1F8F81A61B30B460A4653F83A
:103CC000681F33F80E4CAC420ED9631BA2F85A3071
:103CD00092F85830002BEFD09D422EBF82F85890BA
:103CE0005B1B82F85830E7E7866E01F16C0400290F
:103CF00008BF06F6FC24D66E2660CD4C3160C2E9C2
:103D00001A44846ED4F8046B3260C2E91A96C4F87F
:103D1000043BD1E7284639F0D3F8DBF8740168B3E7
:103D2000D0F8AC4054B3266846B3F0683746B6695D
:103D3000A8421ED9411C02D139690131F4D0401B7F
:103D4000F860226A002AEFD0607D0328ECD8387D25
:103D50008106E9D4C007E7D0A1693846904700281A
:103D6000E2D0607D01306075387D40F0200038750C
:103D7000DAE7204639463FF077FFD5E7DBF87C01EC
:103D800010B142690021904798F826009BF80D4039
:103D9000012833D14FFA84F840464EF09FFD2DD0D4
:103DA0004FF081FC50B3046834B326784046314666
:103DB00047F0EAFDE8B10746B0F80500800618D4E0
:103DC000DFF8181506EB46002A46496C01EB400661
:103DD000394630463FF068FD58B1204610F8011BC7
:103DE0001B908DF868103846F27831881AAB2AF0AB
:103DF0003DF904F11800D6E79BF80D4060B24EF093
:103E00007DFD12D0044641F089FF70B120463AF0A2
:103E100057FE20B10146584612F0BEFEF6E7B4F850
:103E20004C10DBF83C014AF0B3FADBF8380108B17A
:103E3000C1688847DBF83860DFF8B8744EB3B06902
:103E40003446F66A411C022907D26069411CF5D04C
:103E5000A84207D9401B6061F0E7A84211D9401B76
:103E6000A061F2E7584621460522C4F8149048F0B4
:103E700043FB60690028E1D1584621463DF01EFC15
:103E8000DCE7584621460422C4F8189048F034FB79
:103E9000DBE7DBF84C4064B12146D4E90404421C62
:103EA000F9D0A84287BF401B0861584649F018F96D
:103EB000F1E7387B5E462844C1B27C2988BF0020E8
:103EC00056F8CC4F3873A6F12C08C4B12746D4E974
:103ED0000704411C0229F8D30A99884202D9401AE2
:103EE000F861F2E7F87CC7F81C9001380128ECD89B
:103EF0004046394640F0E0FB4FF0CEFEE5E79BF848
:103F0000A4000A99884203D9401B8BF8A40031E031
:103F1000142000278BF8A4003046006828B1C17C2B
:103F2000002908BF01372030F7E7092F22D3306876
:103F300020B1DBF8D000A0F1200400E00024CCB1D7
:103F400030682146A0421ABF486AA0F1200400242C
:103F5000C87C0028F3D1887C062801D00328EED144
:103F6000C86908B1212FEAD3404636F0EFF9013F86
:103F7000082FE4D8DBF85001DFF8348312AFB8B172
:103F800041884468A94203D9491B41802046F6E78D
:103F900004F10801002C08BF0BF5AA7182680A60C1
:103FA00023491460C0E9011127F0A2FB2046E6E78F
:103FB000DBF85801B8B14189C468A94203D9491B4B
:103FC00041812046F6E704F11001002C08BF0BF5F3
:103FD000AE7102690A6016491460C0E9031127F046
:103FE00087FB2046E6E7BBF8F200A84203D9401B56
:103FF000ABF8F20004E0DBF8F41058464BF064FF35
:10400000BBF8DA000222284480B2032828BF03202C
:10401000ABF8DA00BBF8DC00284480B2022828BFE5
:104020001046ABF8DC000BF12400FFF7AFBA00BF7D
:10403000EFBEADDEB0484FF00A0810304FF06EFC16
:104040004CD0BBF818004FF4167900EB800041000B
:10405000B1F5167F38BF4FEA4009DBF81C40D4B3F6
:104060006089D4F800A0A8421DD92669401B608150
:104070007EB39BF83300717A7769814229D34BF084
:1040800073FD7168401AB0FBF8F0484521D3B08B3E
:104090003146304490F8200001302073204645F02E
:1040A00071F93E46E4E7216929B14E69204645F0A1
:1040B00069F93146F8E7D4E90001021D002808BF7C
:1040C0000BF12002116008608C48C4E900004FF039
:1040D00070FF5446C3E70BF13C00AFE77F498648C9
:1040E000DFF8D8B14FF00008C96C08300F9184494F
:1040F000096C0E91D0F80090B9F1000F00F0E58343
:10410000D9F800001190119E002E00F0DA8330687B
:104110001190FF2041B248464AF012F9D8B1044646
:1041200038300768AFB197F8210080070ED438788F
:10413000FE2803D178784FF067FD07D07A693046C2
:1041400039460123CDF8008037F026FE07F12C0018
:10415000E7E7607BDEE706F11C000468D4B3276C58
:10416000AFB139467F68087B0028F9D00868421C47
:10417000F6D0A84202D9401B0860F1E7487BC1F89D
:1041800000800028ECD1204647F034F8E8E7A76B20
:10419000EFB13946FF6948780207F9D58A68531CA0
:1041A00003D0521B38BF42468A604A68531CEFD086
:1041B000AA4202D9501B4860EAE700F01700C1F894
:1041C00004801028E4D1204645F01CF9E0E704F112
:1041D0005000C2E7F789380661D5306B4DF0D0FF4B
:1041E000002859D1B06A4DF07EFD002854D0F46CFF
:1041F00020464DF06DFD8246F0B900E0E46BB4B1AD
:10420000A08C0106FAD540F4807020F08000A084D4
:10421000C6F82480B06A70B10146406B91F8262040
:10422000002AF8D08A8C22F010028A84F3E727F063
:104230008000F08133E0A246706A58B19AF8170006
:10424000854203D2401B8AF8170028E08AF81780BD
:10425000C6F82480B06A002800F094810446406BC0
:1042600094F826100029F6D0A18CC906F3D494F94D
:1042700029004EF033FB0FD00746806B0AF1040192
:104280004CF056FC40B10246384621463EF012FE44
:1042900028B105207462D6E730464BF0CAF9F08E9B
:1042A000A84231D9401BF08645E200BF68CE01200C
:1042B000A0C6012080CC012078CD012018C80120A3
:1042C000942F0000DCBA0120C5BB040080BA012095
:1042D00021FD0100DD12030011F0030020C70120C1
:1042E0009CC70120DB710300DD6A04000D2D050071
:1042F0006B1D050020C6012000CD0120EFBEADDE04
:1043000098C9012068D50120002800F014825FF8C8
:104310000C209088528841085308B1EB520F38BFE7
:104320004308B3F5167F28BF4FF41673F06DF3867C
:10433000002800F00082326BB18E2AB1106890F82C
:104340002D00800740F0F78130460691089250F822
:10435000281F0D9059B3888C4C6BC20711D10A6885
:10436000126892F82030FF2B0BD0128D5FF8C470CA
:104370005A430B6BFF68FB1A0A27B3FBF7F39A4209
:1043800010D991F8262081F8268081F8272000F0A6
:10439000010220F0030040EA420040F00800888457
:1043A0002146D7E7304640F083FF2146D2E70D98FB
:1043B000006830B1818C11F0030118BF01460991EA
:1043C00001E000200990F06D4168304688470020E8
:1043D00010900D980468002C7BD0A08C00F0010296
:1043E000C0F34001914208D04AB9204648F0DCFAB7
:1043F000A08C0122109200F0010111B962E00121AC
:10440000109121680F6839680A6B002A4CD0126835
:10441000BA4249D1C20747D04209CF4891F80CC0EF
:1044200097F82030398D04F1040A60F31F1201FB64
:1044300003FBFF2B534602F08F000B9294F92920C7
:104440000C9008BF4FF0FF3B0C218DE81210CDE916
:1044500003B00020002124F063FF386894F929207C
:104460000B215346007BCDE900148021CDE9020BDE
:104470000C98CDF830A0049007F1080024F050FF0C
:1044800038688168897C79B90B99007B0B2394F992
:104490002920CDE900340C9BC9B2CDE9020B0020E4
:1044A0000491002124F03CFFB068807C50B107F1FA
:1044B0004000076837B1304621463A4642F048FC92
:1044C000381DF6E7A08C20F00200A08404F134002F
:1044D00080E70D984FF022FA1BD0BBF8240080072C
:1044E00017D0B468FF2041B2204649F029FFC8B177
:1044F0000746B0F8F800C10709D020F001000621F6
:104500000022A7F8F80097F90D0046F023FD787B0C
:10451000E9E7304602214FF017F84FF0000B4FF05B
:10452000010A01E04FF0000A0998584506D05FF8EB
:104530005402406D10B1816A01318162BAF1000FFD
:104540000BD0F089C0054AD5304601213AF02CFC49
:10455000F08920F48070F08141E00BF104049BF9B4
:1045600029007E4B0021224645F0FAFCDBF834108E
:1045700011B1888CC0070CD19BF92900012144F0AE
:104580009FFA0DE0BAF8240020F48070AAF8240005
:1045900085E691F92900724B0A1D002145F0E0FCE7
:1045A000304600213AF000FCF0895FF8001340F437
:1045B0008070F081DBF83000C968081A316B096837
:1045C000B1F84A1001EB4101B0EB510F07D9337B31
:1045D000B06800214022CDE900843AF0F9F8304675
:1045E0004DF026F900284ED030464DF021F908282C
:1045F00005D0182801D0102845D1012300E0002360
:104600000D980027046864B194F8260094F82710E8
:10461000814203D0C2430A4204D1074304F134006B
:10462000F0E787B30D98006878B190F8261011B1C3
:1046300090F8271009B13430F5E7B068426922B12B
:10464000416A03200C9390470C9BE3B987F0FF006D
:1046500006F14C01096891B18A8C53070DD51307F7
:104660000BD52CB142F02002C1F828808A8404E0E6
:1046700091F82A20024081F82A203C31EAE73046AE
:1046800000214AF0E7FF0D98076887B13C467F6B31
:10469000A08CC007F9D1F06D2146C2683046904722
:1046A0000028F2D13046214640F002FEEDE72BF023
:1046B00075FB376B0899B94223D0BAF1000F1AD1B4
:1046C000CFB19BF929004EF009F914D0044638689F
:1046D0000BF1040A383007686FB13846214649F0BB
:1046E00089FAB06883691BB138462146524698471B
:1046F00007F11C00EFE730464EF0A0FA5FF844B433
:1047000019E00998B0EB0B005FF850B418BF012016
:10471000109A1043C0070846069906D128B1B28EF8
:1047200000684DF04BFD800705D4F08986F838808D
:1047300040F01000F081B06A10B1808C800735D154
:104740005FF86804406D10B1816C01318164708A3A
:10475000A84207D9401B28E0F8FFFF0FC132030031
:1047600035EC030010B3707C337B00214022A6F8A7
:10477000128001307074B068CDE900883AF028F8F2
:10478000707C052804D80A2148B101384900FBE7AC
:10479000B068426952B1416A0220904706E088B28F
:1047A000B0F5616F28BF4FF461607082F46C64B142
:1047B000E0692146E46B421CF9D0A84287BF401B48
:1047C000C86130463CF0F2FAF1E7F46CBCB1204627
:1047D000E46B818C4A07F9D5C26A531C022BF5D3CE
:1047E000AA4287BF511BC162C0E90A8841F020017B
:1047F0009FBF8184304600214AF02CFFE6E7DDE9C7
:104800000E1081427FF67FACD6F81CE0B06A50EA09
:104810000E0004D1304640F01FFDFFF774BCBEF11E
:10482000000F1ABF306AA0F1500400245FF884051D
:10483000D0F80CC0002044B3234694F82D40E20782
:1048400011D15F68220715D4ACEB070742F227317C
:104850008F4201D8E10606D420B14168ACEB0101DA
:104860008F4200D9184600249E45E4D0596DA1F12D
:104870005004E0E71A6828321268002AE4D0116870
:1048800009689942EFD03432F6E718B13FF0ACFA3C
:10489000FFF739BC30462FF011FB00283FF433AC52
:1048A0000146808C00F0090008287FF42CAC91F8B8
:1048B000260000287FF427AC304640F0F9FCFFF7D3
:1048C00022BC09F10800FFF715BC5FF8EC050A9E51
:1048D0005FF8E075446F84B1A18C204611B1D1FA24
:1048E00055F18184016A846A4A1CF4D0A94286BFCA
:1048F000491B016239F06EFBEDE7B7F86000304408
:1049000081B2A7F8600014294CD314384FF0000886
:104910000024A7F860005FF83806D0F86C904E4687
:10492000DEB1B08C08B10138B084308D776B88B1BE
:1049300014280DD896F921004FF6FF71A6F82880AB
:10494000002803D44EF0B2FD60B3C188F18401E0C9
:104950001438308501343E46E2E7112C22D35FF84B
:104960008006B9F1000F006F18BFA0F134095FF89D
:1049700090164846CA6EB9F1000F13D049464A4511
:104980001ABF8B6BA3F134094FF000098B8C0BB16C
:10499000292CF0D3002B08BF084645F0A5FA241AAD
:1049A000102CE4D85FF8B006DDF81C905FF80087A3
:1049B0000026076B57B338783C4628443870C0B29D
:1049C0003F693D28F6D36089E0B16178D1B921898A
:1049D00001230844E168A1F84400E068B0F8401001
:1049E0004218B0F84400401A0021283800BA000CE0
:1049F000A2F88C000322E068009620F01DFB3FF037
:104A000093F9E660204645F033FAD3E70BF1100046
:104A10000468C4B1616899B108884E69A84203D995
:104A2000401B08803146F6E75FF85007406D10B133
:104A3000026A01320262204643F024FA3146EAE774
:104A400004F11800E4E75FF86807C46D5CB16169C0
:104A50002046E4694A1CF9D0A94286BF491B41613E
:104A600046F0ECF9F2E75FF88807446D5CB1216A23
:104A70002046E46A4A1CF9D0A94286BF491B01625C
:104A800045F0BAF9F2E75FF8840780794FF05CF9F6
:104A900032D15FF89C0700263C2700F148042468C7
:104AA0000CB3D4F8EC1209B128468847B4F80402D4
:104AB000A84203D9401BA4F8040205E020460121C6
:104AC000A4F804722AF008FFD4F80802A84203D917
:104AD000401BC4F80802E2E720460121C4F808623E
:104AE0002AF0FAFEDBE75FF8F027D2E9140140195B
:104AF00041F10001C2E914015FF82008C06DC0B3A4
:104B0000818A02698468294481825369A34203D956
:104B10008360037B022B12D18BB20A2B29D30A3973
:104B2000818291684268914214D9007B022820D08A
:104B3000012043F0A3FF5FF85C08022115E0022189
:104B40000173012043F09AFF5FF870080021C06DE7
:104B500081820EE00268914209D9007B48B90020A9
:104B600043F08CFF5FF88C080121C06D00E000214C
:104B7000017364205FF8BC1809FB00FAB9F1000F5B
:104B8000504608BF012000260E9016AA01F1180019
:104B9000083103320F921AAA09915FF8E4180E3215
:104BA00048310C920D914EF0B9FE00F09A859BF8B9
:104BB0000C0020B99BF83000000700F1F480DBF80E
:104BC000CC500BF1A007002D6BD0A8692C462D6AA4
:104BD0000028F8D0504503D9A0EB0A00A061F2E705
:104BE000A07CA66101380528EDD8DFE800F0040FAD
:104BF00003121E2BE7E7607C21460130C3B26074CC
:104C00003846032B40D33FF057FD32E00320A07419
:104C1000D9E738462146052244F050FE3846214661
:104C20000122002345F07EF9CDE7607C022809D3FC
:104C3000267C384621463FF03FFDB0072BD40620A6
:104C40000026A074607CFF2801D1FF2303E0431CF1
:104C50000428637401D3E07C58B138462146012210
:104C600045F060F9617C042908D3E07C78B1A66145
:104C7000A9E73846214635F069FBA4E7DBF8A80030
:104C80004AF0A4FCA0619EE7002245F04BF9DBF856
:104C9000A800A06197E73846214635F057FB00266B
:104CA00091E79BF83000000727D40BF1440004681B
:104CB000B4B1608A88B1484503D9A0EB090060828D
:104CC0000BE0207C83212246668240F001002074A4
:104CD00058462FF0D9F93FF027F804F11800E6E71D
:104CE000BBF8D8000A21484480B20A2828BF0846E9
:104CF000ABF8D8000BF1240055E7DBF83850002D55
:104D0000D3D0E8692C46ED6A0028F8D0484503D98D
:104D1000A0EB0900E061F2E794F82100E66180076A
:104D200003D458462146032236E094F8200050B9B7
:104D30005846214647F0B0FB28B194F8210040F0D6
:104D4000040084F821009BF81C0194F82010814293
:104D500017D20120214600220023CDE90006584643
:104D600025F0DEFA3EF0E0FF94F82010DBF8A80012
:104D70000131323084F820106421B0FBF1F0E061A1
:104D80000CE094F8210084F820602146002200F015
:104D9000FD0084F82100584647F0AEFB9BF8300038
:104DA0000007ACD481E7BBF83200E0B10138ABF8C2
:104DB0003200000417D14FF4C0601D961B96ADF869
:104DC000690002208DF8700098F832008DF86800B4
:104DD0009BF80D008DF86B001AA849F049F910B145
:104DE0000120ABF8320009980768002F00F0BF815E
:104DF00038469BF80C2010F8541B8A42F4D19BF8DB
:104E0000300000F08100812807D1B88BD8B1484527
:104E100005D9A0EB0900B88315E0BE8313E058461E
:104E20001FF00EFC08B1022005E09BF830004006A0
:104E30004CBF00209B20B883B87F08B10138B877F9
:104E4000012038F03DF8BC7D012C5AD0388B002869
:104E500055D0484503D9A0EB090038834FE0387896
:104E60003E834BF02DFE002849D00546B88A0B281A
:104E700022BF0120B882788395F8910000283ED1A6
:104E800005F17C00119005F13800109007F1340015
:104E90004EF058FD32D098F80100400604D4DDF8F9
:104EA0001C9008F11C00F3E7109808F10C09046845
:104EB000002CF4D094F8220001281CD12046494649
:104EC00008224DF0B3F8B0B995F8910010B1052063
:104ED000E06110E019202146DDF844C0AE46E061F3
:104EE000012085F8910091E82D008CE82D00754691
:104EF00005208EF8900004F12C00D8E7BC7D012C31
:104F00000AD8788B010400F0328181B2494509D971
:104F1000A0EB090078832AE1384659464A4630F02A
:104F20002BFD24E1494503D14FF001080A200EE092
:104F3000A9EB00000A2281B2B1FBF2F14FF6FF7239
:104F4000093A01FB020001F10108C0F10A0078836F
:104F500007F134000068D8B181684A1C022A04D3E2
:104F6000B1EB080138BF3146816041684A1C022A12
:104F70000CD3414503D9A1EB0801416006E0B97D9E
:104F8000012903D04178490600F19F801C30E1E7F8
:104F900008EB8801F86B4D00A0B101688469A94253
:104FA00003D9491B01602046F6E704F11C01002CDF
:104FB00008BF07F14001C2690A60E4494EF0F0FB06
:104FC0002046E9E7B88A002800F0D180404503D99F
:104FD000A0EB0800B882CAE0B87D00285BD0387822
:104FE0004BF06EFD002800F0B9804EF0F6FC40F06A
:104FF000B580D4F83401002800F0B080416A00295F
:10500000119100F0AB80856A002D00F0A780119807
:10501000298850F8342F20F8221C0AB147F0B4FA3E
:105020000894119C54F83C0F10B1204647F06CFBDB
:10503000D5F8108010940A95B8F1000F60D0089848
:1050400094300B90B8F1000F5AD0B8F80410D8F88B
:10505000000008F106042346CAB200F25720C1F34B
:10506000042500924FF416722946B0FBF2F01FFAA5
:1050700080F910984A4631F005FE98F804004A4637
:105080002946DDF81C90234600900B9831F0FAFD7C
:10509000D8F81880D6E70220AD49B875032087F804
:1050A000200091F8310040F0080081F83100012023
:1050B000FE7778839BF83000400602D5584644F0CE
:1050C0005AFC38465946012229E7791C584646F0D1
:1050D0008FFCD7E915019F4C00F15802002808BF4A
:1050E00004F10C02116008609848C7E915003846C1
:1050F00048F0E6FFA068D0BB584648F033F836E0E9
:105100000A98DDF83080089D84680CB304B3CDF8AC
:10511000726010222088ADF86800D4E9010100BA5D
:105120008DF87110CDF86A00080A8DF87000080C2F
:105130008DF86F00080E04F10C018DF86E004EF032
:105140003BFF1AA811992A462DF06EFCE469DDE7B1
:105150000A9948680130486011994862788A791C38
:10516000800800EB4000B882584631F0C7FCDBF8FD
:105170006001002800F08B82774A90F8BE14002569
:1051800012787AB111F00A0F00F0C5803C21018538
:105190007821DBF8600141850221DBF8600180F8AD
:1051A0002C1008E0028D11F0140F0FBF428502EBA6
:1051B000820109014185DFF898814FF6FF764EF0B4
:1051C00017FB800719D501F114004EF029FDA0B19D
:1051D0001AAC34214EF09BFF11208DF86A0040F28A
:1051E00001104EF00AFB584606218DF8735039F035
:1051F0002FFB5846214632F067FC4EF0F9FA0207C1
:1052000048D5D1F898044A46B0EB090038BF284683
:10521000C1F89804DBF8600100F128013CF049FE78
:1052200008B3DBF8600190F82F101D2918D81AACCC
:1052300034214EF06CFF11208DF86A0040F203100B
:105240004EF0DBFA584608218DF8735039F000FB18
:105250005846214632F038FCDBF8600190F82F10F8
:10526000013180F82F10DBF8601191F82F001E2813
:1052700005D8D1F8980410B191F8BE040AE091F86D
:10528000BE04C20706D14EF0AEFA9BF80E004EF0F7
:10529000CFFD2FE1400740F1C28001F11E004EF02A
:1052A000BFFC002800F0BB801AAC34214EF02FFF69
:1052B00041F60110ADF86900204642F033FA9BF840
:1052C0002C008DF87350032848D1DBF86451002D71
:1052D00078D00D9CDFF8281D082220464CF0CEFE29
:1052E0000028DFF8180D08BF00F1400428680121EC
:1052F000002245F036FB002864D04C3000250768BA
:10530000002F5BD0381D2146402243F01CF8054495
:1053100007F13C00F3E7DFF8DC8C11F0140F4FF6D7
:10532000FF763FF44CAF1E21018542F22831DBF8B5
:10533000600141859BF82C10DBF86001032914BF44
:105340000221052180F82C1039E700BFEFBEADDE49
:10535000A0C6012018C8012068D50120DBF874011F
:10536000D0F8AC0000684DF019FC4FF6FF7278B32E
:10537000DBF860414FF6FF72D4F8683543B301782B
:1053800094F86C054FF6FF72884221D958204FF6E9
:10539000FF7211FB0034DCB19BF90D0039F014FBF6
:1053A0004108002808BF4FF48061B4F854000A187F
:1053B0004FF6FF70824228BF024609E0280401D060
:1053C000681E00E00020DBF860110022A1F80C0547
:1053D000DBF860010721A0F80E25584639F038FAAD
:1053E00058461AA932F070FB9BF82C00032816D0FF
:1053F00098F83900012812D1DBF8600190F82610E6
:10540000013180F82610DBF8600190F8261014298D
:1054100005D390F8BE1401F0FB0180F8BE144EF0E5
:10542000E7F9C00666D5B1F8C00428B1D0FA59F042
:10543000A1F8C004DBF8601101F10A004EF0F0FBA6
:10544000002857D01AAC34214EF061FE40F20230F1
:10545000ADF86800DFF8B40B807900284FF06700E2
:1054600008BF27208DF86A00204642F05BF9DBF880
:1054700074010178C1F3C2018DF8731001788909B4
:105480008DF874109BF82C10032910D1DBF86011F3
:1054900091F8C42402F00303012B08D102F0FC00B0
:1054A000023081F8C40491F8C504013000E0C078EE
:1054B0008DF875005846092139F0CAF958461AA9DD
:1054C00032F002FB9BF82C00032813D098F8390027
:1054D00001280FD1DBF86001817C01318174DBF898
:1054E0006001817C142905D390F8BE1401F0EF010E
:1054F00080F8BE14B9F1000F55464FEA191008BFE5
:105500000125109028280BF1380088BF35461190EE
:10551000DBF860010026D0F8F874002F00F09380CB
:10552000B888A9B2D7F80880884203D9401BB88050
:105530004746F2E7B87941071ED43968F8794FF049
:10554000000948F2FE030024D1F80120D1F805102B
:1055500000284FF00000CDF86C901A931D9182F056
:1055600002011C928DF870103AD19BF89E00C00782
:105570001DD10024002033E0F97900295DD0800797
:1055800008D44EF063F8B880B87900F0FB00B87129
:105590004746C2E75846394640F06EF8DBF87401DA
:1055A0003968D0F8AC004CF09BF84746B5E7119845
:1055B0000468002CDDD020463CF0E8FD022802D82B
:1055C00004F12C00F4E7DBE948010F9A8DF85A60EA
:1055D0001060012051608DF86300ADF8580016A8E6
:1055E000CDE9009058461AA92246012324F098FEDE
:1055F000044618B14DF082FE4FF00409B87900F06E
:10560000FB0141EA0901B9716CB1013001F0FC0103
:1056100041F28932DDF81C9000F00300BA800844A2
:10562000B871474679E7F979DDF81C9029B110F097
:10563000020002D14EF00AF879E75846394640F0A8
:105640001BF8474669E758464DF018F81FD04189C6
:10565000E9B1109A282A07D80E9A92B2914203D93A
:105660000E9A891A418112E04681DBF8700170B10F
:10567000C36863B101218DF8701016A98DF85860C8
:105680001B91F221ADF869100A211AAA9847DBF89C
:105690009400DFF8608900283FF491AA01688469CA
:1056A000494504D9A1EB090101602046F3E781884F
:1056B0008A0409D421F4405148F6A04201F5005172
:1056C000026081802046E6E704F11C01002C08BF3F
:1056D0000BF19801C2690A60D3494EF061F8204687
:1056E000D9E7DFF824094FF0000B0DF1680A083004
:1056F0000768002F00F0958211973F68002F00F097
:105700008D823D6B85B32C682846D4B3C8B3204640
:105710004BF003FD08B1387C98B328464CF030FDBF
:1057200080B9387C70B9FE89B0050BD498F82C008C
:10573000012807D1384648F09CFA10B328464CF0AF
:105740001FFDB8B107F1380004F148014A463CF0AA
:10575000B0FBB0B1F8890021002220F01000F881E0
:10576000384613F0CFFC0CE0387C50B1FC6944B1F2
:10577000206BCAE716F0A00F03D1B7F85600002837
:10578000E0D0B7F85800B8B1484504D9A0EB0900FB
:10579000A7F8580010E0F889A7F858B097F85530E6
:1057A0004FF0FF32400646BFFF200090CDF800B01A
:1057B0000021384624F040FFB7F8560000283FF497
:1057C0009CAF484504D9A0EB0900A7F8560094E720
:1057D000386BA7F856B000283FF48FAF0468002C50
:1057E0003FF48BAF94F82D00C0077FF486AF207E86
:1057F00000F03800082807D0182802D010287FF4BD
:105800007CAF4FF0010901E04FF00009F889010673
:1058100021D4810625D498F92A1016AD012904DB7C
:1058200097F85A20C9B28A4227D200210020B9F144
:10583000000F10901A9136D107F14C00006880B328
:10584000818C4A0705D5090703D5017D802900F021
:10585000E3813C30F2E73C20DDF81C90A7F85600CD
:105860004BE7B868007C46F015FAB7F85810DDF839
:105870001C9081427FF641AFCBE1B96A19B138463D
:105880003FF016FDF889DDF81C904FF6FF7120F00F
:10589000200087F85AB0A7F858B0A7F85610F8813A
:1058A0002BE7002010904FF4A0604DF057F8014610
:1058B0000F9000F0D580A44607F128030D941CF842
:1058C0001C1F0E93C1F3420200211B6823B193F801
:1058D000264034332143F8E7802020FA02F2524276
:1058E0000A4007F14C01D3430C4624688CB194F86C
:1058F0002B50A67D94F82A0084F829B0154084F82E
:105900002B5006EA0305284316AD84F82A003C34E0
:10591000EBE70D9C0968D1B191F82800A8B994F87B
:105920002D00CB6900070CEAE072581C05D0908965
:105930000344013BB3FBF0F301E04FF0FF33107978
:10594000834238BF184681F828003C31E2E70F9CBB
:1059500004F54076B44280F08C804CF0E7FE0028DD
:1059600000F085808346808CB9F1000F41D081061C
:105970000BD520F02000ABF824009BF81500B0F107
:105980007F0118BF411C8BF815102046594643F083
:10599000DBF804469DF858008BF82900B44213D276
:1059A0004CF0C4FE80B101469BF8150048759DF887
:1059B000580081F82900888C20F020008884204637
:1059C00043F0C2F80446E9E7B9F1000F1ED040F2F7
:1059D000064020809BF824009DF85810C001E1701B
:1059E000A0709BF8150020719BF8280060710634A8
:1059F00033E00107BBD410990029B8D19BF82A00E5
:105A00009DF8581008438BF82A0026E0BBF82400C4
:105A10009DF858A0000709D4109B204659465246CD
:105A200045F0BEFD044616E0EFBEADDE0E984DF02B
:105A300089FF0ED098F826001AEA000206D008F175
:105A400014032046594645F0ABFD044608F13400E6
:105A5000EDE7DFF8A0850DF1680A4FF0000B79E75C
:105A60003846002149F0F6FDDDF81C9045E64FF080
:105A7000000B0F98844209D0B9F1000F0BD01A998E
:105A800091F929000E1D4AF00FFA08E025F030FECA
:105A9000DDF81C9031E60D9800F1080600200C900E
:105AA00097F85A00DDF81C90C8B1B8684FF0FF3184
:105AB00048F046FC98B190F90D10304640F0DAF805
:105AC00068B1056B5DB190F921004DF0EFFC30B18C
:105AD000A87C022802BF0320A874C5F818B010964D
:105AE0000F9897F90C60A4EB0008B6F1FF3F4FF058
