:10000000C0390220611104002D2404002D240400B5
:100010002D2404002D2404002D2404002D2404008C
:100020002D2404002D2404002D2404002D2404007C
:0C0030002D2404002D2404000D99020072
:10004000A9CC0000202200004906040003000000A3
:100050000300000003000000030000000000000097
:10006000ABCC00004323000049060500030000005C
:100070000300000003000000030000000000000077
:10008000ACCC00004E22000049060800030000002E
:100090000300000003000000030000000000000057
:1000A00009C00000B42300000504040003000000A0
:1000B0000100000003000000030000000000000039
:1000C0000AC000008F2300000704040003000000A2
:1000D0000100000003000000030000000000000019
:1000E00023C00000F4220000050604000300000005
:1000F00003000000030000000300000000000000F7
:100100002BC00000CC2200000E06040003000000FB
:1001100003000000030000000300000000000000D6
:10012000ADC000001A2500002D06040003000000E9
:1001300003000000030000000300000000000000B6
:10014000AFC00000D52400002D060400030000000D
:100150000300000003000000030000000200000094
:10016000ACC000003B2500002B060400030000008B
:100170000300000003000000030000000000000076
:10018000AEC00000B22400002B06040003000000F3
:100190000300000003000000030000000200000054
:1001A000A8000000FC2600000E0605000300000069
:1001B0000300000003000000030000000000000036
:1001C000AE0000001C27000005060500030000002B
:1001D0000100000003000000030000000000000018
:1001E0008C0000005B2700000504050003000000F0
:1001F00000000000030000000300000000000000F9
:100200008D00000095270000070405000300000092
:1002100000000000030000000300000000000000D8
:10022000A5C00000942B00002D060500030000006F
:1002300003000000030000000300000000000000B5
:10024000A9C00000DF2A00002D0605000300000001
:100250000300000003000000030000000200000093
:10026000A4C000007B2B00002B060500030000004B
:100270000300000003000000030000000000000075
:10028000A8C00000C42A00002B06050003000000DF
:100290000300000003000000030000000200000053
:1002A00037C00000692300000506080003000000B5
:1002B0000100000003000000030000000000000037
:1002C00035C000008F240000050408000300000072
:1002D0000100000003000000030000000000000017
:1002E00036C000006C240000070408000300000072
:1002F00001000000030000000300000000000000F7
:1003000000000000531B000000000000000000007F
:1003100000000000000000000000000000000000DD
:1003200071400021DB4000219D4000210941002156
:100330001541002121410021394100215141002175
:10034000DB420021074C657900F009F861796940CA
:10035000490703D50121044A8903116070BD70B5B6
:100360000249084780030021081104402D5900006C
:1003700000F019F8E1B26C290BD0042801D006284E
:1003800007D110490978C90703D12178090700D49A
:1003900002200D490A780C21114202D00B4980221B
:1003A0000A6003B0F0BDF0B583B0094908470020EA
:1003B0000849884704480178402291430170064863
:1003C00000470000C80000213301002100E200E0E6
:1003D00041160300F7630000231B030000F088F8B8
:1003E00000480047577F000000F088F800480047A9
:1003F0001B880000094B1A780824A243002800D06B
:1004000022431A70004A1047838E0000034908787F
:10041000000701D402480047704700008003002114
:100420005F7E0000044A2820904704480121416073
:100430000348044A416010474F4200000050044006
:100440000060044085420000F8B5014908470000FB
:100450000D64000070B51F4D2878C4B21E48804757
:100460002878032834D1032C32D01C488068400DF2
:10047000C2071A48014660318030002A03D01F2489
:100480000C57458802E01E240C570588002C1FD00D
:100490001348154A41690079414348101149496997
:1004A000401810494039497F90474005401569423E
:1004B00088420DDBA8420BDC0C4B996988B20246DE
:1004C000090C624309045212801880B208439861F3
:1004D00070BD0000E40200217941000028000021E5
:1004E0008003002100030021CB8100004040044034
:1004F000806B0C490007000F48717047094A0A4990
:1005000018235079CB56497EC018814201DD084638
:1005100002E00F2800DD0F20D189090909010143FC
:10052000D1817047E00200218800002110B501460A
:100530002B4B2C4800E020BF42699207FBD1294891
:10054000DA7A403000680B2A01D100F043F810BD80
:100550002022521A9040244A00BA9369434021480D
:1005600000E020BF42699207FBD488001F49401871
:10057000C3631C4840300360704710B5194800E061
:1005800020BF42699207FBD4426B174B98695040D9
:100590005A8AD40701D00124604052085A8220228E
:1005A000511A88400F4900BA4031086010BD10B59B
:1005B0000446FFF749FF0C49097C8909C80708D0A0
:1005C0000B48E10701D00B4900E00B4901620B49E0
:1005D000416210BD2022511A884000BA70470000C5
:1005E000600100210020044028000021C0210440B7
:1005F00080030021A74200217D42002159420021B1
:100600002D2D2D2D2D424547494E2043455254490D
:100610004649434154452D2D2D2D2D0D0A4D494957
:1006200042627A434341525543464873582F614FC3
:100630002F38736B5A2F334E4151727A51393537F7
:10064000482F614E5A4D416F4743437147534D34D4
:100650003942414D434D413078437A414A0D0A4277
:10066000674E5642414D54416B4E424D43495944A9
:100670007A41774D4441774D5441784D4441774D0F
:10068000444177576867504F546B354F5445794D07
:100690007A45794D7A55354E546C614D474D780DFC
:1006A0000A437A414A42674E5642415954416B5A75
:1006B0004A4D51307743775944565151494441523C
:1006C00050645778314D51307743775944565151E2
:1006D0004844415250645778314D513077437759EF
:1006E000440D0A5651514B444152305A584E304DE8
:1006F0005130774377594456515144444152305A0E
:10070000584E304D5267774667594A4B6F5A496881
:1007100076634E41516B4246676C305A584E3051A9
:1007200048526C0D0A633351775754415442676302
:1007300071686B6A4F5051494242676771686B6AD2
:100740004F50514D4242774E43414152494A3068E1
:100750005664596D507354466D5933676C56417ADF
:1007600045366452450D0A365670337245557771D9
:100770004B71664D614A577678643845737A614D9E
:1007800050365055776E346270724D6B5550526DC5
:1007900049535465385431374B385A535269386786
:1007A000756E374D416F470D0A43437147534D34C2
:1007B0003942414D43413067414D455543495143CD
:1007C0007451776E56656D776C49556F58654D5A03
:1007D000315745334A486A39584149627867326C23
:1007E0007765524A39315861560D0A566749674450
:1007F000796674362B474633753331566D546C6ABF
:10080000544D415A5A63434E5258445030654E68D5
:10081000612B674230546C4768593D0D0A2D2D2DD0
:100820002D2D454E44204345525449464943415499
:10083000452D2D2D2D2D00FF0000891112239B32F7
:100840002446AD573665BF74488CC19D5AAFD3BEA0
:100850006CCAE5DB7EE9F7F88110080193331A22B0
:10086000A5562C47B7753E64C99C408DDBBF52AE80
:10087000EDDA64CBFFF976E802218B301002991390
:100880002667AF763444BD554AADC3BC588ED19F60
:100890006EEBE7FA7CC8F5D983310A209112180370
:1008A000A7772E66B5543C45CBBD42ACD99E508F40
:1008B000EFFB66EAFDD874C904428D5316619F7040
:1008C0002004A9153227BB364CCEC5DF5EEDD7FC20
:1008D0006888E1997AABF3BA85520C4397711E6030
:1008E000A1142805B3373A26CDDE44CFDFFD56EC00
:1008F000E9986089FBBB72AA06638F7214409D5110
:100900002225AB343006B9174EEFC7FE5CCCD5DDDF
:100910006AA9E3B8788AF19B87730E6295501C41EF
:10092000A3352A24B1163807CFFF46EEDDDC54CDBF
:10093000EBB962A8F99A708B088481951AA793B6CF
:100940002CC2A5D33EE1B7F04008C919522BDB3ABF
:10095000644EED5F766DFF7C899400859BB712A68F
:10096000ADD224C3BFF136E0C1184809D33B5A2A9F
:10097000E55E6C4FF77D7E6C0AA583B4188691976F
:100980002EE3A7F23CC0B5D14229CB38500AD91B7F
:10099000666FEF7E744CFD5D8BB502A4999610874F
:1009A000AFF326E2BDD034C1C3394A28D11A580B5F
:1009B000E77F6E6EF55C7C4D0CC685D71EE597F41F
:1009C0002880A1913AA3B3B2444ACD5B5669DF783F
:1009D000600CE91D722FFB3E8DD604C79FF516E40F
:1009E000A9902081BBB332A2C55A4C4BD7795E681F
:1009F000E11C680DF33F7A2E0EE787F61CC495D5EF
:100A00002AA1A3B03882B193466BCF7A5448DD59FE
:100A1000622DEB3C700EF91F8FF706E69DD414C5CE
:100A2000ABB122A0B9923083C77B4E6AD5585C49DE
:100A3000E33D6A2CF11E780F2D2D2D2D2D424547BB
:100A4000494E2043455254494649434154452D2D72
:100A50002D2D2D0D0A4D4949424C7A4342317141A9
:100A600044416745434168516F6F44744232444684
:100A7000574673446C6B5679654B4C6B6B467132C1
:100A8000377654414B42676771686B6A4F505151DA
:100A900044416A414E0D0A4D5173774351594456B2
:100AA00051514445774A4451544169474138774D43
:100AB0004441774D4445774D5441774D4441774DFE
:100AC000466F59447A6B354F546B784D6A4D784D6B
:100AD0006A4D314F5455350D0A576A414E4D517389
:100AE00077435159445651514445774A44515442F1
:100AF0005A4D424D4742797147534D34394167450C
:100B00004743437147534D34394177454841304954
:100B1000414247305A4142442B0D0A67384E7663B2
:100B2000394B4270772F6148686F696D394B72712C
:100B30007A4F59503571546D5A67533875784D2F27
:100B4000657165414A367672536976574654326606
:100B50007848757A58472B796676730D0A6F504E30
:100B600067424A68762F594E684D394B6A45444171
:100B70004F4D41774741315564457751464D414D81
:100B80004241663877436759494B6F5A497A6A3010
:100B9000454177494453414177525149670D0A43D2
:100BA0004B30302F574E71724C7A537437517475E5
:100BB000737467624C2B6B6962584275574665596E
:100BC000426A55357950626148454349514438611C
:100BD00046775074322F6F584C4F53613767420D30
:100BE0000A396E7770413172736D7A434A4C76627E
:100BF000386F7578513375685862673D3D0D0A2D21
:100C00002D2D2D2D454E44204345525449464943F0
:100C10004154452D2D2D2D2D00000FAC000000005E
:100C2000C561040000000000010000003D650400F3
:100C30000000000002000000496504000000000000
:100C400003000000756B04000000000008000000B5
:100C50002B3D0400000000000D000000E1E803004F
:100C60000000000024000000815C0400000000007F
:100C700025000000915C0400000000002600000038
:100C800051F80200000000002700000041B00300FE
:100C900000000000280000007D6B04000000000040
:100CA00036000000115D040000000000410000005B
:100CB000B94004000000000042000000215D040073
:100CC0000000000043000000694B04000000000029
:100CD00044000000315D04000000000050000000EE
:100CE000415D04000000000051000000515D04005F
:100CF00000000000520000002D2D04000000000044
:100D0000530000006D2004000000000054000000AB
:100D100095200400000000005B0000004154040026
:100D2000000000005F0000001F70040000000000D1
:100D30006000000023700400000000006300000059
:100D400069090300000000006400000059CC0300A2
:100D500000000000650000001770040000000000A3
:100D6000660000001B700400000000000015000079
:100D7000A15C04000000000001150000ADF60300B6
:100D80000000000056150000B15C040000000000E7
:100D900057150000C15C0400000000005815000059
:100DA000D15C04000000000059150000E15C040063
:100DB000000000005A150000F15C04000000000073
:100DC0005B15000095B00300000000005C150000FA
:100DD000015D0400000000005D150000856B04004B
:100DE000000000005E150000394B04000000000008
:100DF0005F150000514B04000000000000080000D7
:100E0000000000000000080400000000FFFFFF00D9
:100E10000C1100000000000000001D110000000087
:100E2000000000002E010F000000FF0000002F0155
:100E300000000000FF000000300100000000FF0083
:100E40000000310100000000FF000000320100003E
:100E50000000030000003301000000000300000058
:100E60003401000000000100000035020000000015
:100E7000FFFF0000370200000000FF000000390201
:100E800000000000FF0000003B0200000000FFFF28
:100E900000003D0200000000FFFF00003E010000D6
:100EA0000000010000003F01000000000100000000
:100EB0004001000000000700000041200000000089
:100EC00000000000610200000000FFFF0000630856
:100ED00000000000000000006B080000000000009F
:100EE0000000730800000000000000007B08000004
:100EF000000000000000830205000000580200000E
:100F000085010000000010000000860200000000C3
:100F100032000000880200000000320000008A0257
:100F2000000000000A00000000E52803000065D171
:100F300002000213CA010000EB6F04000113CA0192
:100F40000000EB6F04000321FB020000EB6F0400C4
:100F5000043B6C040004356C04000013CA0100015A
:100F60004D6C040001476C040001EB6F040001EBC1
:100F70006F040001EB6F04000091D5030001EB6FDB
:100F8000040001EB6F04000113CA010001EB6F04C0
:100F90000001EB6F0400024D6C040002476C04007A
:100FA00002EB6F04000091D5030002EB6F04000216
:100FB000EB6F040002A9CA030002EB6F04000213E6
:100FC000CA010004356C040002EB6F0400034D6C91
:100FD000040003476C04000313CA01000313CA0191
:100FE0000003EB6F04000321FB020003EB6F04001E
:100FF0000091D5030003EB6F040003EB6F040003C3
:10100000EB6F0400044D6C040004476C04000413EF
:10101000CA01000413CA01000413CA01000413CA60
:10102000010004A9CA030004EB6F04000413CA0101
:101030000004356C04000091D50300FF240000007B
:10104000556504000000000025000000615D0400FB
:101050000000000036000000D15D04000000000028
:101060004100000085FF0300000000004200000076
:10107000410A04000000000044000000E9B0030041
:101080000000000045000000616504000000000051
:10109000520000001DE903000000000053000000A2
:1010A00089DF03000000000054000000710A040002
:1010B000000000005F0000002B7004000000000032
:1010C00072000000353A03000000000056150000D1
:1010D000715D04000000000057150000815D0400F0
:1010E0000000000058150000915D040000000000A1
:1010F00059150000A15D0400000000005A15000011
:10110000B15D0400000000005C150000C15D04003A
:10111000000000005D150000D36104000000000025
:101120005E150000512D0400000000005F15000056
:10113000752D040000000000AB15000027700400AE
:1011400000000000FF00000000000000000100009F
:1011500000808080808080808080909090909080BF
:10116000808080808080808080808080808080807F
:10117000801804040404040404040404040404049F
:101180000402020202020202020202040404040433
:1011900004044343434343434141414141414141AD
:1011A0004141414141414141414141410404040423
:1011B000040423232323232321212121212121214D
:1011C0002121212121212121212121210404040483
:1011D000800000000000000000000000000000008F
:1011E00000000000000000000000000000000000FF
:1011F00000000000000000000000000000000000EF
:1012000000000000000000000000000000000000DE
:1012100000000000000000000000000000000000CE
:1012200000000000000000000000000000000000BE
:1012300000000000000000000000000000000000AE
:10124000000000000000000000000000000000009E
:1012500000257800982F8A4291443771CFFBC0B5A2
:10126000A5DBB5E95BC25639F111F159A4823F9271
:10127000D55E1CAB98AA07D8015B8312BE853124CA
:10128000C37D0C55745DBE72FEB1DE80A706DC9B8B
:1012900074F19BC1C1699BE48647BEEFC69DC10F37
:1012A000CCA10C246F2CE92DAA84744ADCA9B05C73
:1012B000DA88F97652513E986DC631A8C82703B036
:1012C000C77F59BFF30BE0C64791A7D55163CA0644
:1012D00067292914850AB72738211B2EFC6D2C4D50
:1012E000130D385354730A65BB0A6A762EC9C2813E
:1012F000852C7292A1E8BFA24B661AA8708B4BC2D4
:10130000A3516CC719E892D1240699D685350EF4FD
:1013100070A06A1016C1A419086C371E4C774827B4
:10132000B5BCB034B30C1C394AAAD84E4FCA9C5B2A
:10133000F36F2E68EE828F746F63A5781478C8847B
:101340000802C78CFAFFBE90EB6C50A4F7A3F9BE5D
:10135000F27871C60097B92EE5725CCB5DCAE47372
:10136000B82F0196BA2D03945FC8E671E7705EC985
:101370000295BB2CE3745ACD0691BF28BE29079075
:101380005BCCE27559CEE077BC2B05920493BD2A65
:10139000E17658CF51C6E87FB4230D9A0C9BB52255
:1013A000E97E50C7EB7C52C50E99B720B6210F9845
:1013B00053C4EA7DB2250B9C57C0EE79EF7856C135
:1013C0000A9DB324089FB126ED7A54C355C2EC7B25
:1013D000B027099EA2351B8C47D0FE69FF6846D115
:1013E0001A8DA334188FA136FD6A44D345D2FC6B05
:1013F000A037198E41D6F86FA4331D8A1C8BA532F5
:10140000F96E40D7FB6C42D51E89A730A6311F88E4
:1014100043D4FA6DF3644ADD1681AF38AE391780D4
:101420004BDCF26549DEF067AC3B15821483AD3AC4
:10143000F16648DF1087A93EF5624CDB4DDAF463B4
:10144000A83F1186AA3D13844FD8F661F7604ED9A4
:101450001285AB3C0001363601010001020100019A
:101460000301000104010606080400000C01003419
:101470000D01000F10040101140100FF1608000007
:1014800020020000220100FF23010001240100FED0
:1014900025010008260200002801000129010001A1
:1014A0002A0200002C01000F2E0200003001000172
:1014B00031010008320200FF34010007350102FF4C
:1014C000360100003701000138010001390100FF39
:1014D0003A01000F3C0200FF3E01010F3F010001F5
:1014E0004001041F41010001420100FF430100804F
:1014F000440800004E0100084F01000F5001000198
:10150000510100FF5201000A5301008954010001FA
:10151000580400005C040000600400006404000043
:10152000680400006C0400007004000074040000F3
:10153000780400007C040000800100FF81010001AC
:101540008201000183010102840100012D2D2D2D56
:101550002D424547494E204543205052495641545B
:1015600045204B45592D2D2D2D2D0D0A4D486343FA
:1015700041514545494F784F7131784C2B4876356C
:101580006867365A673431705658706B6A4C546BC2
:101590005A78587242484A63457854554D416674AA
:1015A0006F416F4743437147534D34390D0A4177BB
:1015B00045486F5551445167414553436449565816
:1015C000574A6A3745785A6D4E344A56514D784FCE
:1015D0006E55524F6C61643678464D4B69716E7A28
:1015E00047695672385866424C4D326A442B0D0A90
:1015F0006A314D4A2B4736617A4A4644305A69452A
:101600006B3376453965797647556B5976494C7019
:101610002B773D3D0D0A2D2D2D2D2D454E4420457A
:10162000432050524956415445204B45592D2D2DAC
:101630002D2D00FF020000005C28000003000000C8
:101640000429000004000000AC290000050000008F
:101650002428000006000000CC280000070000003D
:10166000742900000E000000782800000F00000020
:101670002029000010000000C82900002B000000F5
:10168000402800002C000000E82800002D00000089
:1016900090290000480000001C2A000049000000BA
:1016A000382A00004A000000942800004B00000087
:1016B0003C2900004C000000E42900004D0000001F
:1016C000B02800004E000000582900004F00000024
:1016D000002A0000000000000000000038C40D00D7
:1016E000C8000000810000003200050138C40D0070
:1016F000C80000008100000032000F0138C40D0056
:10170000C8000000810000006400050138C40D001D
:10171000C80000008100000064000F0138C40D0003
:10172000C8000000810000009600050138C40D00CB
:10173000C80000008100000096000F0138C40D00B1
:10174000C800000081000000C800050138C40D0079
:10175000C800000081000000C8000F0138C40D005F
:10176000C8000000810000002C01050138C40D00F4
:10177000C8000000810000002C010F016861726444
:101780007761726520657863657074696F6E206932
:1017900064203D2025642C207063203D2030782576
:1017A0003038782028433A2F74692F73696D706C34
:1017B000656C696E6B5F6363313378785F63633246
:1017C0003678785F73646B5F375F34305F30305FDB
:1017D00037372F6B65726E656C2F746972746F7317
:1017E000372F7061636B616765735C74692F737900
:1017F0007362696F732F66616D696C792F61726DA9
:101800002F6D332F4877692E633A313039322900F2
:101810000D6C04006D250400594F0100000000000C
:101820006D3C04001D9B03001169030000000000D3
:10183000635304000957030029F602002800000042
:10184000D1310400857C0300BD4D03002E00000053
:101850004D3C040031AC030061F003003C0000008B
:10186000D556040041D2030035E502007C0000009B
:10187000D1100400A94303009D6803004C00000040
:10188000D10504007D9B030089AC030084000000A7
:10189000291B0400197C0300CDB703009C00000045
:1018A000FFFFFFFFFFFFFFFF000000000000000040
:1018B0000000000000000000000000000000000028
:1018C0000000000000000000000000000000000018
:1018D00014000000000000000000000000000101F2
:1018E00000000000000000000000000000000000F8
:1018F00000000000000000000000000000000000E8
:1019000000000000000000000000000000000000D7
:1019100000000000000000000000000000000000C7
:10192000000000780008020030000A00883400003F
:1019300003000000E52C0000022E00000001000062
:101940008434000003000000533000009532000092
:10195000040000007C34000003000000382E00006A
:10196000CB2D0000000800009834000003000000A8
:101970003D2D0000902E000020000000BE3200002F
:1019800009000000522D0000482B0000000001005B
:101990009034000003000000FA2A0000282D000007
:1019A000080000000000000000000000000000002F
:1019B000000000000000000048776920616C72653B
:1019C00061647920646566696E65643A20696E7445
:1019D00072232025642028433A2F74692F73696D80
:1019E000706C656C696E6B5F6363313378785F63CD
:1019F00063323678785F73646B5F375F34305F30A3
:101A0000305F37372F6B65726E656C2F7469727437
:101A10006F73372F7061636B616765735C74692FD7
:101A200073797362696F732F66616D696C792F6169
:101A3000726D2F6D332F4877692E633A333835290D
:101A4000006E6F204953522C206964203D2025648C
:101A50002C207063203D20307825303878202843B2
:101A60003A2F74692F73696D706C656C696E6B5F6A
:101A70006363313378785F6363323678785F736499
:101A80006B5F375F34305F30305F37372F6B657295
:101A90006E656C2F746972746F73372F7061636B2E
:101AA000616765735C74692F73797362696F732FF3
:101AB00066616D696C792F61726D2F6D332F487778
:101AC000692E633A3130393529006F7574206F669D
:101AD000206D656D6F72793A20686561703D307870
:101AE00025782C2073697A653D25752028433A2F87
:101AF00074692F73696D706C656C696E6B5F63637D
:101B0000313378785F6363323678785F73646B5F04
:101B1000375F34305F30305F37372F6B65726E65FB
:101B20006C2F746972746F73372F7061636B6167A8
:101B300065735C74692F73797362696F732F727543
:101B40006E74696D652F4D656D6F72792E633A37CE
:101B500038290000360001000600000000000000E7
:101B6000000F000000000000000000000000000066
:101B700000000300FFFF00000403FFFF0000FFFF61
:101B80000F00E8030005401F0310000101000000E2
:101B9000FF3F0F0008000E000000000000000000E2
:101BA0000300010F00000901000000000000000018
:101BB0000000000000000000000000000000000025
:101BC0000000000000000000000000000000000015
:101BD00000000000AD00000100000000696E746E9E
:101BE000756D3A202564206973206F7574206F66C7
:101BF0002072616E67652028433A2F74692F7369DC
:101C00006D706C656C696E6B5F6363313378785FA0
:101C10006363323678785F73646B5F375F34305F4D
:101C200030305F37372F6B65726E656C2F74697259
:101C3000746F73372F7061636B616765735C746970
:101C40002F73797362696F732F66616D696C792F79
:101C500061726D2F6D332F4877692E633A333737B2
:101C600029007F7F7F7F7F7F7F7F7F7F7F7F7F7F59
:101C70007F7F7F7F7F7F7F7F7F7F7F7F7F7F7F7F74
:101C80007F7F7F7F7F7F7F7F7F7F7F7F7F3E7F7FA5
:101C90007F3F3435363738393A3B3C3D7F7F7F4094
:101CA0007F7F7F000102030405060708090A0B0C69
:101CB0000D0E0F101112131415161718197F7F7FB0
:101CC0007F7F7F1A1B1C1D1E1F20212223242526F7
:101CD0002728292A2B2C2D2E2F303132337F7F7F3E
:101CE0007F7F040A100000060000000000000000D2
:101CF000201C000000000000403800000000000030
:101D0000602400000000000080700000000000005F
:101D1000A06C000000000000C048000000000000AF
:101D2000E05400000000000000E10000000000009E
:101D300020FD00000000000040D90000000000006D
:101D400060C500000000000080910000000000005D
:101D5000A08D000000000000C0A9000000000000ED
:101D6000E0B5000000000000D9B00100B98C02000D
:101D7000000000000000000000000000F14A040024
:101D80002D540400914003000D650400416F0400D0
:101D90003B6F0400CF500400000000002F6F0400D0
:101DA000B5510300EDAF03000D3704000D400300F3
:101DB0003358040061C60200550D0200817403000F
:101DC0006D3704000000000029D70300D94A040041
:101DD0001113030000000000010000000E000000CD
:101DE0000B000000010000000C00000009000000D2
:101DF00003000000010000000100000001000000DD
:101E000001000000020000000400000011000000BA
:101E100012000000010000000100000001000000AD
:101E200001000000010000000100000001000000AE
:101E30001400000013000000000002000000040075
:101E40000200020000003200040001000000020055
:101E50000000000000000000050001000000070075
:101E60000600010000000300070008000000000059
:101E70000F0001000100FF0010000800000000003A
:101E8000180008000000000022000200000000000E
:101E90000010004015000000FF00000010D20020DC
:101EA0008000000090D200208000000000000000B0
:101EB0000C0000000D000000FF000000FF0000000B
:101EC000201800201018002004000000020000006C
:101ED00005000000100000000F00000011000000CD
:101EE00012000000000200008E0000008E000100C1
:101EF0008E0002008E0003008F0000018F000002A0
:101F00008F0000038E0001048E0000058E0008047F
:101F10008E00000489000006500000007F000100D0
:101F20003F0004003F0002003F0001007F0002006C
:101F30008E0002048E0001028E000101A932000011
:101F400009000000C83000007834000001000000E3
:101F5000D033000007000000803000008F30000008
:101F6000020000003C34000005000000B83300000F
:101F7000E42F00000300000000000000000000004B
:101F8000000000000000000000000000B03300006E
:101F90000700000014300000F42F000004040000CB
:101FA000D132000008000000F02D0000DE2D0000FE
:101FB00005040000F5320000080000005C2E00005F
:101FC0004A2E00000604000000000000000000008F
:101FD000000000000000000000000000B721000029
:101FE000B7210000FD210000FE210000000000FFDD
:101FF0000001010300010203FF03030300010203C8
:102000000001010300010203FF03030300000000BD
:1020100004000000080000000000000079530400E4
:10202000F587030015630400D15904009D6904007D
:10203000236C04001D6C0400000000000000000080
:102040000000000000000000000000000000000090
:102050000000000045630400396304003833333561
:1020600044433136334242313234423635313239EB
:1020700043393646444539333344384437323341A3
:10208000373041414443383733443644353441379F
:102090004242304400736571282575292044282563
:1020A0006429205258202825642C202575292C20AD
:1020B0005458202825642C25752920686F70282500
:1020C0006429204C656E28256429002A2A2A20428A
:1020D000522063616E206E6F7420666F727761723A
:1020E000642072782D7365712825752920707265BA
:1020F000762825752920696E2077696E646F7700D0
:10210000073800000000000000000000000121036B
:102110000F008000520798E00800FFFFBCED002090
:10212000960399050500000070EE00205CEE00208B
:10213000043800000000000000000000000188F9E1
:102140004E90550000000000FF0710580000FC01F1
:10215000000000000000000000000000000000007F
:102160005449574953554E46414E2F312E302E3249
:102170003B2052454C454153453B20417072203134
:102180003220323032342031313A35393A30380069
:10219000040000003634000051700400596F040040
:1021A00019D10100A53D040000000000000000005E
:1021B000E9E20200D1410400594C04007D540400BE
:1021C00002000000C52B000051700400714C040097
:1021D000C5F7030049EA030000000000000000000A
:1021E000E9E20200ED410400894C04007D54040042
:1021F0000300000030340000517004004D690400F9
:1022000000000000000000000000000000000000CE
:10221000E9E20200ED410400894C04007D54040011
:10222000544C532D45434448452D45434453412D7B
:10223000574954482D43484143484132302D504F6F
:102240004C59313330352D53484132353600544CDA
:10225000532D45434448452D50534B2D5749544821
:102260002D43484143484132302D504F4C59313372
:1022700030352D534841323536000008B569040029
:102280006B6C0400510904002D36040081CB03005F
:10229000314A0400A5800300C9CB03007563040024
:1022A00021830200DA320000080000009F320000A3
:1022B0009F3200000300000000000000000000004A
:1022C000000000000000000000000000544C532DEE
:1022D00045434448452D45434453412D57495448AF
:1022E0002D4145532D3132382D47434D2D53484113
:1022F00032353600544C532D45434448452D454313
:102300004453412D574954482D4145532D313238BE
:102310002D4342432D534841323536003E3E3E2048
:102320004461746120496E642073726350616E4928
:10233000442025753A206D792050616E4944282546
:10234000752900544C532D50534B2D574954482D4B
:1023500043484143484132302D504F4C593133307E
:10236000352D53484132353600544C532D454344A6
:1023700048452D50534B2D574954482D4145532D19
:102380003132382D4342432D5348413235360054C3
:102390004C532D45434448452D45434453412D5707
:1023A0004954482D4145532D3235362D4342432D56
:1023B00053484100544C532D45434448452D454313
:1023C0004453412D574954482D4145532D313238FE
:1023D0002D4342432D534841003D3D2072782D73DB
:1023E0006571282575292070726576282575292044
:1023F0006E6F7420696E2077696E646F77000A00D3
:1024000001000000010000000000000000000000CA
:1024100000000000010000000100000001000000B9
:102420000100000000000000770000000000000034
:10243000000000000E00000001000000000000008D
:102440001D0000000000000000000000000000006F
:102450000000000001000000000000000002000079
:10246000000000000000000001000000544C532D4B
:1024700045434448452D50534B2D574954482D4111
:1024800045532D3235362D4342432D534841005498
:102490004C532D45434448452D50534B2D574954DB
:1024A000482D4145532D3132382D4342432D534859
:1024B0004100544C532D45434448452D4543445316
:1024C000412D574954482D4145532D3132382D4324
:1024D000434D2D3800544C532D45434448452D451C
:1024E000434453412D574954482D4145532D3235CE
:1024F000362D43434D2D38003D3D3D2072782D73E0
:102500006571282575292070726576282575292022
:10251000696E2077696E646F7700544C532D454384
:102520004448452D45434453412D574954482D4176
:1025300045532D3235362D43434D00544C532D45D4
:10254000434448452D45434453412D574954482D54
:102550004145532D3132382D43434D00033800009F
:102560000000000000000000820108101400008438
:10257000000000004E905500000000000200000026
:102580004570040059E903000000000029410400DF
:10259000E16104000D410400114C04000200000040
:1025A000000000000000000000000000FFDC03004D
:1025B000FFDC03004D380400B116040009000000E0
:1025C000000000000000000039690400294C0400EC
:1025D000294C040099410400052E04000900000064
:1025E000000000000000000000000000414C04005A
:1025F000414C0400590104001DF70300FFFFFFFFD9
:102600000000000000000000000000003A013A0154
:1026100000000000000000000000000002000000B8
:102620000000000000000000000000003D900200DB
:102630003D900200DD2E0400DD16040002000000C3
:10264000000000000000000000000000656F0400B2
:102650005F6F04002D390400E94C04004B60D22761
:102660003E3CCE3BF6B053CCB0061D65BC8698769A
:1026700055BDEBB3E7933AAAD835C65A96C298D857
:102680004539A1F4A033EB2D817D0377F240A4639B
:10269000E5E6BCF847422CE1F2D1176BF551BF37A4
:1026A0006840B6CBCE5E316B5733CE2B169E0F7C77
:1026B0004AEBE78E9B7F1AFEE242E34F512563FC13
:1026C000C2CAB9F3849E17A7ADFAE6BCFFFFFFFFAD
:1026D000FFFFFFFF00000000FFFFFFFFFFFFFFFF06
:1026E000FFFFFFFFFFFFFFFF0000000000000000F2
:1026F0000000000001000000FFFFFFFF544C532DBD
:1027000050534B2D574954482D4145532D313238A4
:102710002D47434D2D53484132353600544C532DEF
:1027200050534B2D574954482D4145532D31323884
:102730002D4342432D534841323536002D2D2D2D4A
:102740002D424547494E2045432050524956415459
:1027500045204B45592D2D2D2D2D00544C532D50DA
:10276000534B2D574954482D4145532D3132382D67
:102770004342432D534841002D2D2D2D2D454E44D0
:102780002045432050524956415445204B45592D30
:102790002D2D2D2D00544C532D50534B2D57495456
:1027A000482D4145532D3235362D4342432D534854
:1027B000410074692E73797362696F732E6B6E6C4E
:1027C0002E5461736B2E49646C655461736B000009
:1027D00004000000080000001000000000000000DD
:1027E000040000000800000010000000400D03007D
:1027F000801A0600C0270900A086010090D00300BF
:1028000000350C00804F1200053800000000000069
:1028100000000000000000000000000000000000B8
:102820000000000005020000800000000C320000E3
:102830001000000000000000100000007C250000D7
:102840002B08000080000000003200000C00000097
:1028500001000000100000009C25000002010000A3
:1028600080000000A0310000000000000000000017
:10287000100000007C2500000E0600008000000013
:10288000AC3100000C00000001000000100000004E
:102890001C2600004A0B0000800000007632000079
:1028A0000000000000000000100000003C260000B6
:1028B0004D0C0000800000002432000000000000E9
:1028C00000000000100000003C260000060200008E
:1028D000C0000000B831000010000000000000003F
:1028E000100000007C2500002C080000C000000043
:1028F000F43100000C000000010000001000000096
:102900009C25000003010000C0000000943100007D
:102910000000000000000000100000007C25000006
:102920000F060000C0000000D03100000C000000C5
:1029300001000000100000001C2600004B0B0000EE
:10294000C00000006B32000000000000000000002A
:10295000100000003C2600004E0C0000C0000000EB
:10296000E83100000000000000000000100000003E
:102970003C26000007020000000100008831000032
:102980001000000000000000100000007C25000086
:102990002D08000000010000183200000C000000AB
:1029A00001000000100000009C2500000401000050
:1029B000000100007C310000000000000000000069
:1029C000100000007C25000010060000000100003F
:1029D000C43100000C0000000100000010000000E5
:1029E0001C2600004C0B00000001000060320000BB
:1029F0000000000000000000100000003C26000065
:102A00004F0C000000010000303200000000000008
:102A100000000000100000003C26000048070000F5
:102A200000010000E33200000C0000000000000084
:102A300001000000BC250000490A00000001000060
:102A4000142E00000C000000000000000100000037
:102A5000DC2500002D2D2D2D2D424547494E2050BF
:102A6000524956415445204B45592D2D2D2D2D00B1
:102A70002D2D2D2D2D424547494E20434552544979
:102A80004649434154452D2D2D2D2D0069643A2092
:102A9000307825782061303A2030782578206131EF
:102AA0003A20307825780A0000000000000000007D
:102AB000E80300000000000000000000000000002B
:102AC00000000000544C532D50534B2D574954488F
:102AD0002D4145532D3132382D43434D2D3800546F
:102AE0004C532D50534B2D574954482D4145532D90
:102AF0003235362D43434D2D380069642D63652DE5
:102B00006365727469666963617465506F6C69634B
:102B1000696573002D2D2D2D2D454E4420434552C2
:102B200054494649434154452D2D2D2D2D002D2D21
:102B30002D2D2D454E442050524956415445204B91
:102B400045592D2D2D2D2D004E65747363617065D3
:102B50002043657274696669636174652054797095
:102B600065002D2D2D2D2D424547494E20583530DD
:102B7000392043524C2D2D2D2D2D00544C532D50CA
:102B8000534B2D574954482D4145532D3132382D43
:102B900043434D00544C532D50534B2D57495448EB
:102BA0002D4145532D3235362D43434D001A1B2AF6
:102BB0002B034A4B051A1A1A1A1A1A1A1A1A1B2A1E
:102BC0002B034A4B054543000308000000000000AA
:102BD00000000000000196033433000000000000F4
:102BE0006400000039FD0300000000005B150000D8
:102BF000A1CC03000000000064000000B9FF030046
:102C0000000000005B150000E9CC0300000000009C
:102C1000000000000002081000BE020801020003CC
:102C200002000103002040600300170000010000C3
:102C30009F320000000000000000000000000000C3
:102C40000000000000000000000000000000000084
:102C50000E0000000B00000000000000000000005B
:102C60000100000000000000E00000000100000082
:102C7000FF0000000000000080A90300FF0000002A
:102C80000000000080A90300000000000001010115
:102C90000100000101000000000000000000000031
:102CA0005061697277697365206B6579206578700A
:102CB000616E73696F6E002D2D2D2D2D454E4420B4
:102CC000583530392043524C2D2D2D2D2D0050726A
:102CD0006F632D547970653A20342C454E43525918
:102CE000505445440069642D63652D6261736963C6
:102CF000436F6E73747261696E74730001007000CB
:102D000050000400030060000200000005000600FF
:102D10000700636C69656E742045415020656E63E1
:102D200072797074696F6E00436572746966696365
:102D300061746520506F6C69636965730069642D07
:102D400063652D7375626A656374416C744E616D61
:102D5000650069642D6E657473636170652D6365CC
:102D600072747479706500547853657128256420F5
:102D700054782825642C25642929200002000000AD
:102D80000000000000000000FFFFFFFF0000000047
:102D9000000108011001200140018001000200042F
:102DA000FEFFFFFF00000000000000000000000028
:102DB0000500000000000000001610160E18151C7B
:102DC0000212032428600302100260457874656EC5
:102DD000646564204B6579205573616765004543E0
:102DE000445341207769746820534841323234009B
:102DF00065636473612D776974682D53484132327D
:102E00003400426173696320436F6E737472616949
:102E10006E74730043484143484132302D504F4C4B
:102E20005931333035007061655F6672616D655F81
:102E3000636F756E7465720069642D63652D6578C6
:102E4000744B657955736167650045434453412070
:102E5000776974682053484132353600656364737E
:102E6000612D776974682D53484132353600303111
:102E700032333435363738394142434445460030E1
:102E80003132333435363738396162636465660010
:102E90005375626A65637420416C74204E616D6580
:102EA0000020202020202020202020202020202042
:102EB00020000000FF0300000000000000000000F0
:102EC000000000FCFF010000000000000000000006
:102ED00000000001FF0100000000000000000000F1
:102EE00000000002FF0200000000000000000000DF
:102EF00000000001FF0200000000000000000000D0
:102F000000000002FF0200000000000000000000BE
:102F10000000001A00000000000000000000000097
:102F200000000001FF03000000000000000000009E
:102F300000000001FF03000000000000000000008E
:102F400000000002FF05000000000000000000007B
:102F5000000000020000000000000000000000006F
:102F60000000000084C80020702C000008C9002068
:102F70007C2C00000200000000000000FFFFFFFFAB
:102F800000000000050502003200320004000101CB
:102F90000000FF0701050A19010A1428010F1E3C51
:102FA00002143264F0000000FFFFFF0FFFFFFF0F6D
:102FB0000008000000000000000000000000000009
:102FC00000000000636C69656E742066696E697349
:102FD000686564007365727665722066696E6973F0
:102FE000686564004543206B657920666F722045F3
:102FF0004344480045434453412077697468205353
:1030000048413100417373657274206661696C6573
:10301000643A200065636473612D776974682D5389
:10302000484131006B65795F73747267655F696EE3
:1030300064657800AEC000000000000000000000E1
:10304000000000006B65795F73746F726167655F84
:1030500030300069642D63652D6B65795573616748
:103060006500576953756E496E7465726661636574
:10307000004572726F72207261697365643A200054
:1030800069642D65635075626C69634B65790047AF
:10309000656E65726963204543206B6579005769E9
:1030A0002D53554E46414E2F312E30006D617374B5
:1030B000657220736563726574006B65792065784D
:1030C00070616E73696F6E00727361456E637279C1
:1030D0007074696F6E000000FF02000000000000C5
:1030E00000000001FF0C5A9E496E697420436F7501
:1030F0006E746572000000005C0000006C0000004F
:103100006C0000008833000090330000983300000A
:10311000C0210000F021000090210000F6230000F3
:10312000F9230000F8230000000000000000000068
:103130000000FFFF7C220000AFDA0020A033000077
:10314000FF000100094B040007000000C801000057
:10315000C5700400EDAE03000000000015CA0300B6
:103160009115030075770300FD56040051AC020071
:10317000757703000000000051AC02004145532D5B
:103180003235362D454342004145532D3235362DDB
:10319000434243004145532D3139322D45434200CE
:1031A0004145532D3132382D454342004145532D81
:1031B0003132382D47434D004145532D3139322DA1
:1031C000434243004145532D3235362D47434D0090
:1031D0004145532D3139322D47434D007061655FB4
:1031E0006E775F696E666F004145532D3139322D20
:1031F0004B5750004145532D3139322D43434D003B
:103200004145532D3132382D43434D004145532D17
:103210003132382D434243004145532D3235362D4E
:1032200043434D004145532D3132382D4B5750000B
:103230004145532D3235362D4B57500000000000CC
:10324000000000000000000000000000000000007E
:10325000000000000700230222020D280F280E287C
:103260004145532D3235362D4B57004145532D31B5
:1032700039322D4B57004145532D3132382D4B57A4
:10328000000100000000060700000A01010104001F
:1032900000010002024B6579205573616765007378
:1032A0006563703235367231002A864886F70D0123
:1032B00001010000416E6F6E796D6F75730060865D
:1032C000480186F8420101000001040704040202DB
:1032D000022A8648CE3D040301002A8648CE3D03DB
:1032E0000107004348414348413230007061655F47
:1032F0006B657973002A8648CE3D040302002B06D5
:103300000105050708040000ACED0020B0ED002029
:10331000FE8000000000000028D9002037080000CF
:1033200078DA00203B100000C0D9002033160000DE
:10333000A6A6A6A6A6A6A6A644C20020901E000089
:10334000E8D90020E0330000E42E0000C42E000085
:10335000AEC0000000000000000002083545251541
:103360000C0E0811000105094500230037001B0061
:103370000004081000040810000000000000000015
:10338000FF0000000000000057340000041440005B
:10339000F6330000051C4000EF330000062040001B
:1033A00000800A000040000071300000043000007E
:1033B0002A8648CE3D04010069642D6563444800B7
:1033C000286572726F72290065636B65792E5100F2
:1033D0002A8648CE3D02010089000400C14A04004B
:1033E000000002400929FF00010102020304045306
:1033F0004841323536005348413232340077735FEA
:10340000746C73001B5B306D0A0D00286E756C6C5C
:103410002900FFFF00018000260012000C0081003F
:1034200040002A00000000FFFE000000009EACAC3F
:1034300045435F4448004543445341002B81040108
:103440000C0025642E256400551D20000000060296
:103450008682000810182053484131003938414114
:10346000004D5273480000010203040022000100D5
:1034700044000100F962040052534100551D25002B
:103480002E256400551D0F00551D13002F257500B6
:10349000551D200055040300551D110008E60020AD
:1034A0002DE9F04FB1B0D0F834B08246BBF1000F37
:1034B00003F07783BAF83C0040F6FF01084040F67D
:1034C0001101884243F061831CA80130119024A8A7
:1034D000033014902CA800F10A01023013911290CD
:1034E000DFF8480E68301590CDF86CB0BAF1000FD7
:1034F00003F04883BAF83C000AF10B0700F00F0113
:1035000002053ED4481E0D2801F23285DFE810F096
:103510000E004B017301B801300D300D300D300D30
:103520006400300DDC01300D300D0E009AF80850AB
:10353000002D00F0CF820AF1090029463FF000F982
:10354000002800F01083DBF86C0139462A4643F06E
:103550007FF9BAF87610C90740F0B682002800F06B
:10356000B382017D11F0180F40F00A83890640F103
:10357000B182617D01396175017D01F0DF01017565
:10358000A8E203390C2901F2F384DFE811F00D0001
:10359000B301F10CE801F10CF10C0402F10C830011
:1035A000F10CF10CF10C4B0200F0F000BAF84040C5
:1035B000B02840F09682BAF8480005195046AAF89B
:1035C00040503FF0B3FE0020AAF848000AEB040088
:1035D0002C4600F1880986E200208AF87300DAF8A8
:1035E0008000002801F0C484057BDAF83490BAF832
:1035F00040B0FF2D00F0EC82504643F0DFFA002887
:1036000000F0428600F10C0609F1980804461A956C
:103610004046314628F080FD002800F035860546FA
:10362000807C012800F25884D9F894C1BCF1000FC5
:103630000ED027AA484631461CABE04740B11C9843
:103640009DF89C30294620220090404626F038FC08
:10365000A87C012800F2408405F1280400212046BE
:1036600042F01EFCDDF86CB00746022FC0F03A862F
:103670002068D0E900120B1D002908BF05F12C03BA
:103680001A601160E649C0E90011802142F073F927
:10369000013FEAE7DAF83430BAF84070002BAAF8B4
:1036A000427000F09B87BAF84400A0EB070B1FFAAA
:1036B0008BF02828C0F092870AEB070000F18809F8
:1036C00099F8000000F0F001602940F087879AF82F
:1036D00075101A938A0647BF01F0DF01BAF8482037
:1036E0000021002218921CAB8AF8751000218AF87C
:1036F000741019F8061F8AF8731019F8051C99F848
:103700000120C1F303118AF8722041EA0010194622
:103710008AF8780039F8020C19900AF11C0090E838
:103720007C000AF108007CC127A990E87C007CC1DC
:103730000AF11D05102209F1020143F04DFB0AF1C7
:103740000908042409F11201102240468AF81C409D
:1037500043F074FC9AF81D001A9E8AF80840FF286E
:1037600000F03C879AF84E0080070FD5DFF8C01BA9
:10377000404641F025FD002800F03087DFF8B01BFF
:10378000284641F01DFD002800F0288798F8000029
:10379000FF2800F00587BAF8765015F0300F40F09A
:1037A0001D8700F003BF504643F008FA002800F0E0
:1037B0008281DAF83400002800F07D819AF8081040
:1037C000042940F078819AF81C10042940F0738194
:1037D0009AF8721019B990F8E8008AF87200DAF8CD
:1037E0007C001CAC411C00F0B385B0F1FF3F00F33E
:1037F000D98500F0B1BD9AF81C00042841F0B883C7
:10380000504608212AF0E0FB4FF0000A00283FF460
:103810006DAE8046B0F840000025B8F82E1008388C
:1038200009BA18FA80F4A8F84000090CA4F88E50E0
:10383000A4F88810B8F81A1009BA090CA4F88A106C
:10384000B8F84410081A112184F88D00000A84F891
:103850008C0040462DF0ACFD112188F84C50A8F8A2
:1038600073103221A8F83C1000284FF6D87108BF19
:1038700001F1270000BA000CA4F88E0000F0C1BED0
:10388000DAF83450504604212AF09EFB4FF0000A2B
:1038900000283FF42BAE804642F0B0FC04464220A4
:1038A000A8F83C0098F81C00042800F0FD8208F1FC
:1038B0001D0108F1090228463FF0B8FF002800F07A
:1038C000F082404601F055BB504638F0B7F9002869
:1038D00000F06C829AF80900FF2800F048825046F8
:1038E00000213EF040FF40F6BB00AAF83C00D04665
:1038F00000F087BEBAF84060BAF84400801B80B27E
:103900000428C1F035839AF876100AEB0600DAF83D
:10391000345090F8884090F8890049078AF873403D
:103920008AF8740009D5D5F85811002901F02083D0
:103930009B2C02D1012801F21B8350463A212DF025
:1039400037FD002800F0A682DFF8E809806D002826
:1039500001F00E83C1680131C16001F009BB9BF920
:103960000D0040F0D3F8002801F00283BAF84010AF
:1039700019900AF18800425C014491F801B062F3A9
:103980000A2BBBF1000F00F06283920600F1358133
:103990000A1D002334E19AF80820002A01F0E2828F
:1039A0009AF81C10002901F0DD82504630F81D3FC6
:1039B0001CBA4FF6D87327339BB2B3EB144F01F008
:1039C000D182DAF83470022A0AD1BAF81F204FF6F1
:1039D000D874253412BAA4B2B4EB124FC1F0C2822B
:1039E000D7F86C21D28E9A4201F0BC82BAF84040DE
:1039F000BAF84420121B042AC1F2B4823EF0A0FEA1
:103A0000002801F0AF820AEB04008830007800F053
:103A1000D801C02940F0E58640F6960065E700BF72
:103A2000EFBEADDEDAF83840002C00F0B780607BE6
:103A30003F2801F29D82207BFF2801F09982208A95
:103A40000021B1EB502F41F09382216A002900F050
:103A5000B383BAF84020BAF84430D4E909569A1A28
:103A6000E369C91A731B9942B8BF0B469342C1F26E
:103A70007F82411C8AB28A4218BF0246DFF8B8082A
:103A800000211D948DF873101F918DF8781090F817
:103A90003A0022824FF44072ADF871208DF8700028
:103AA0001CA83EF06FFB002800F0E285204641F0A4
:103AB000DFFD01F05DBAD0464046802141F05BFF5A
:103AC0004FF0000800F097BDDBF85811002957D0DF
:103AD000002855D15046502141F04DFF4FF0000ACB
:103AE000D2E14FF00009BAF84460301B85B2072DCF
:103AF00041F23E821AFA84F70022002337F8880F39
:103B000041BA788897F804B097F80580AAF82E1083
:103B100040BAAAF81A00062A0AD0DFF8204834F87A
:103B200012400132241AB4FA84F464092343F2E700
:103B3000DA0749D00AF11C04B1F5337F08D044F606
:103B40004C51884200F09A83B0F5337F40F0918366
:103B50009AF80900FE2800F09183BAF87600400731
:103B600040F18C8390E34FF6FF70AAF80B0002201F
:103B70008AF808009AF85C0020F01801002074E12F
:103B80009AF85C10002841F010018AF85C1000F0EF
:103B90006881027D082323EAC20263E19AF8730078
:103BA000012841F0E5819AF874000AF108010AF150
:103BB0001C022FF04FFA002801F0DA81044650462B
:103BC00021463EF0D0FD32E750461FF0BDFF5BE3DB
:103BD000062104221A958AF80810D9F86C11C98EAA
:103BE00009BA090CAAF80910817E62F35F118AF8FC
:103BF0000B10C07E8AF80C003BE20B794A1DDB00FB
:103C0000101A169349880AF11C06AAF840000AF116
:103C10001F0018900AF1080091FA91F91A9019986A
:103C2000043017900568A5B3688848452ED1A88848
:103C300058452BD12C693178207F884226D11A999A
:103C400094F808800978884520D10238C0B2052848
:103C50009ABFDFF8EC16095C002104F11F008A1EF0
:103C6000189940F0FBFD88B9A8F10200C0B2052800
:103C70009ABFDFF8CC16095C002104F10B008A1E04
:103C8000394640F0EBFD002800F0B48505F1140042
:103C9000C8E71998C568002D00F0D9812C46199FF6
:103CA00054F8140F00F11801002808BF07F11001A3
:103CB000AA690A6010602846182142F06FFF7868F0
:103CC00000F11801002808BF07F108010C6020600E
:103CD0000BF10700179940F0010020F00600A961E0
:103CE0007D602EF06FFA002800F01281BC4696E845
:103CF0009E0080461C309EC01A9E08F1080096E87F
:103D00009E009EC06446BCF80200A5F804B0A5F869
:103D100002902880B8F840000130A8F840005844CC
:103D2000A8F8440043F06DF84FF6D870ABF10101EC
:103D3000002227306881B8F840004044893020F0E4
:103D400001004180028069898180C5F81080A04609
:103D50006A81169E26F00707002F00F02B81BAF823
:103D60004000BAF844100C1A20461A9442E1BAF8FE
:103D7000760040051AD5504635F01CFA80B104464D
:103D8000B0F87600002140F48060A4F87600204668
:103D90003EF0E9FC40F6BB00A087204635F06EFD02
:103DA000BAF8760020F48060AAF87600504642F017
:103DB00005FF002844D09AF84E0080070AD49AF8EC
:103DC0000900FF2806D1DAF834105046012237F0F6
:103DD00087FA82465046022127AA3FF087FD002835
:103DE0003FF46EAE8046BDF99C0000283FF564AEFE
:103DF000012840F08F80B8F84000B8F84410091A44
:103E0000B1F5C56F40F3FD8108EB0004042508F10E
:103E10001D00102204F1900188F81C5043F00EF9A7
:103E200004F1A00108F10900102288F8085043F0BD
:103E300005F94FF4C56000210222009040460BE0D6
:103E4000DFF8F004806D10B1C1690131C16100205B
:103E5000002101220090504600231CF09FFA80466A
:103E6000C9E3002221F0080111438AF85C109AF896
:103E70005D20012A08D0C90603D5DBF858110029B6
:103E80004CD000208AF85D00584651460EF08EFB5B
:103E900001F071B8812C47D150461FF055FE01F05A
:103EA00067B8042088F81C0098F87300002120707F
:103EB00098F8740061803A21607040462DF078FADD
:103EC00040BA60803A20A8F8730098F8780000F0B3
:103ED000FC0088F8780094E3287D8AF80800287DA3
:103EE0000238C0B205289ABFDFF854140A5C0022D9
:103EF0000AF1090005F1300143F0A0F8BAF87600A4
:103F0000C00740F0AD804046294631F0A7FDB0E043
:103F1000384699E02920A8F83C006CE310B1007DF8
:103F2000C006AED50220ADE7301D42F0C4FBD5F887
:103F3000A8318BB1002051468DF8700028461CAA8C
:103F400098478246002800F06E839DF87000002894
:103F500040F069839AF87340A4F18000082800F2C9
:103F60008E83DFE810F00900DB04F5042C05E30480
:103F7000E304E3045B05AC05DAF83450002D00F0EF
:103F8000F7875646812116F8090FA6F86A104421D2
:103F900006F11404A6F83310FF2895F8E81086F807
:103FA000691001F0D48130462146102241F055F9C4
:103FB00001F023BA50461CA91DF068FCBAF8401065
:103FC000BAF84420C0B2521ABDF87010101A1A92F2
:103FD00044185146A01AA8812869B0F8769039F0A3
:103FE0006DFE29694FEA9900B1F8762060F38202EC
:103FF000A1F87620A119481E80B2584523D2A846C0
:10400000189138F80A1FD8F806904646B9F840E0EB
:1040100009EB0E0202F1880C1CFA81F2013222F047
:10402000010253889F4203D81488A04280F09282F4
:104030004FF6D87332F8041F27339BB216469942C5
:10404000EAD100F021BC4046294638F0FDFFB948CE
:10405000806D002800F01881016A0131016213E1CE
:10406000207BFE287FF44FAF607B42F06BFD7FF436
:104070004AAF9AF85C00400705D4BAF8660000BA67
:10408000000CAAF809000AEB0B0509F58C7405F180
:104090008806214606F110003FF037F928B1DDF817
:1040A0006CB003220021002027E0D9F86C01DDF874
:1040B0006CB0028F4FF6D870263080B2824219D28F
:1040C00096F817C0D3B2002001219C4514D1B37DCE
:1040D000120A9A424FF000020FD105F19D00994D4E
:1040E00000214A1D00F19B826B18425C01395B790B
:1040F0009A42F6D0002001210022554605F81C2FD7
:10410000D9F86C21D28E53BAA5F801304FF6D87386
:10411000273339B1D9F86C018089C0070CD103204D
:10412000287000E050B9D4E90001786198B2B96113
:10413000824200F01D870EE002202870D9F86C0141
:10414000008F41BAAAF81F1099B28A4200F0108776
:10415000884200F00D87544614F8080F811E02298A
:10416000C0F09481062840F0038799F89600C006B5
:1041700040F18881BAF87600000700F18381D9F810
:104180006C01C08E00BA000CB9F1000FAAF809004A
:1041900000F0B283D9F86C0190F83C1001F00301F3
:1041A000032901F07080022940F0A683B0F83D0099
:1041B0003880022001F06EB842F0A4FC06D0018ADB
:1041C0004A1C93B2934218BF0B460382CAF83800C8
:1041D0000020CDF874A01F908DF878008DF8730042
:1041E0004FF40070ADF87100534890F83A008DF824
:1041F00070001CA83DF0C6FF002840F0B98600F012
:10420000BABEB8F87610CA053FF556AC41F48071D5
:104210000022A8F8761098F81C1088F8752000295C
:1042200000F0EC8208EB0004292194F8890088F85A
:104230007310B4F88A1000F00F00ADF8711003216C
:104240008DF870001CA841F0DBFD04F190011022F4
:104250003FF03CFB04F1A00110223FF037FBB221FC
:10426000A8F83C1041F006FF08BF0120C8F87C0008
:10427000C1E1BAF87600400700F1D78148EA0B2087
:10428000082801D3A84205D942F0D0FD42F095FAA2
:10429000FFF72CB9BAF84010DDF86CB00844AAF862
:1042A00044000AEB01000021B0F88E0000BAB1EB27
:1042B000104F3FF449AB504611212DF079F80028FA
:1042C0007FF442AB0AF18805781B0830AAF8400059
:1042D000BAF81A00072800F0F684002800F0428699
:1042E00000F0F6BCE96A0020C1F800A0CAE90001AC
:1042F000C5F82CA04FF0000AA97C00297FF4F6A88D
:10430000687401214FF0000AD9F8A000A974A861CF
:10431000D9F89041002C3FF4E9A8484629460022EC
:1043200000234FF0000AA047FFF7E0B878E500202F
:10433000142F00009CE000201CE0002054320000FC
:10434000E21C000024340000542F0000142C000054
:104350006FF00100CAF87C00BAF81A00BAF82E1003
:104360009AF873208DF87310090A8DF87100000A0D
:104370008DF874208DF872108DF870000AF11D0010
:10438000102141F03DFD0AF1090110223FF09EFA93
:10439000214605223FF09AFA41F06CFE08BF012049
:1043A000CAF87C004FF00008504601212246ADF8C3
:1043B00070803FF09BFA002800F01D81BDF970105D
:1043C000002900F1298190F875103024490758BF61
:1043D0002824B0F84060B0F84470214629F0F4FD7C
:1043E00000283FF46DAB8046B0F84000001BA8F8F1
:1043F000400042F006FDBA1B0546D8F87C1098F83C
:1044000078002244283AE9706A71120A2A710A0A6D
:1044100001F47021AA70020941EA0050414660325D
:10442000000C2A70687098F87200E87111F81D0F7E
:10443000FF283FF441AB05F1080042F019FCD8F821
:10444000800005F11804C1692046002908BF08F161
:10445000090142F00DFC5FF81011204640F0B0FE5B
:1044600000283FF429AB2078FF2803D1687E00079D
:104470003FF422AB98F87500400700F1EE83A81DC9
:1044800000F00EBC4FF6FF70AAF80B0048465146EC
:104490002FF018F8014648463EF09EFDBAF840203D
:1044A000BAF844108E1AB1B22829C0F0618552447E
:1044B00002F1880898F8002002F0F002602A40F02B
:1044C0005785043887B2B94238BF0F46384641F0A5
:1044D000B7FB00F0C780834627A8294637F05EFB6C
:1044E000002800F0BD802CA8214637F057FB00289B
:1044F00000F0B6801A9909F18C00FF3942F09AFA5F
:104500008DF88C102CA9229127A9ADF87E70ADF8FA
:104510007C6021911CA981E80109002000212090E4
:104520001CA817F057FC30B1BDF88000BDF88240E0
:10453000844240F21C875046012129F045FD0028A5
:1045400000F0F5860121804641F051FE41210170C5
:1045500000F01FBFA74202D3984240F263815FF888
:104560002C12896D21B10A6A01320A62D5F81090C5
:104570004FF6D871ABF1010327316981B9F84010CA
:104580004944893121F001020021538011806C8956
:10459000948069810024D5F81090B9F840E042E198
:1045A0009AF80A00000719D0BAF87650680703D5C0
:1045B00042F06AFB022811D1199800BA000C01469A
:1045C0002830584540F3F58004203146009050468D
:1045D000042200231BF0E2FE80460AE05FF8AC02F2
:1045E000806D08B142F02EFA504636F0D1FD4FF002
:1045F0000008DDF86CB04FF0000AB8F1000F3EF48F
:1046000075AFD8F83400C24658453EF46FAF404607
:1046100035F034F900F0AFBC8046FFF74DBA022206
:104620000120002169E5D046E5E70AF11D0033F0DD
:1046300009FE02283FF628AE42F064FA09D141F0A3
:10464000F9FE014650463EF08EF842F05BFA3FF428
:104650001BAE806990F8310000287FF415AE0DE69E
:1046600042F087FB42F0E2FBDDF86CB000F083BC67
:1046700004F11C0051463BF02DFA00F07CBC9B2C51
:1046800000F0B5829F2C40F05181514611F8090F7E
:10469000FF2840F06D849AF80A0000F00F0002280D
:1046A00040F066849AF87200FF2840F06184284642
:1046B0003AF050FB002800F05B840546BAF8400051
:1046C000BAF844106A7D05F11C0982F001060AF16E
:1046D00088025318104400216E7518911693984261
:1046E00080F0D287191A0229C0F2CE874178832937
:1046F00000F2CA875FF8AC2301F00307890800F1D4
:10470000020B1A9112F80780A3EB0B0241448A4274
:10471000C0F2BA87002F5A464146047804BF0AF116
:104720001D021021D9F800003DF01CFE002F18BF1B
:10473000C344C0B3067217901030199007685FB178
:10474000B88B384490F8201020463EF06DFB00B145
:104750007E7007F11400F1E74FF000081A995FFA34
:1047600088F0B1EBD00F20D9C10800F007001BF88A
:10477000011001FA00F0000612D508EB0400C7B2E0
:1047800019983946006840F073FD08B1467007E09B
:104790001798017B38463EF047FB18990143189162
:1047A00008F10108DAE7012018901A98169B58447E
:1047B00095E7BCBF3844AAF8440009F1220799F8EC
:1047C0000000DDF86CB0002800F0EB813C464F465D
:1047D000DDF86090D0468A46680600F1AA8100257F
:1047E000C0E100F0C001802940F08A8040F69D00C1
:1047F000FFF77BB8DDF86480FFF7ABBAD8F8340078
:1048000000283FF459A908F11D0108F109023FF001
:104810000DF800283FF550A9042088F81C00B8F8CE
:104820004000FFE4B04609EB0E0212FA81F1893133
:1048300021F00101A7428988A8F8001012D929693E
:10484000B1F840201144169A21448931013A21F0EF
:1048500001014A800C80B8F8002021F8042FA8F844
:10486000004000E0414683420ED92A69B2F8404038
:104870002244189C12FA84F2893222F001025380F9
:1048800014800B8893800C802A69BAF84010B2F823
:104890004030514488311A4410441A9A92B2801A16
:1048A000893042F0CBFB2969BAF87600B1F876205E
:1048B00000F004001043A1F8760042F0B7FA4FF67A
:1048C000D870698941F079FF273080B281427EF447
:1048D0000DAE0020D5F8108029462861199838F0CF
:1048E000B3FB40F66901A889A8F83C10B8F840105D
:1048F0000844A8F840007EE600208AF8080037E364
:10490000412840F0FF81601C41F0D5FE40F69B003D
:10491000AAF83C0041F002FCFEF7E9BFDAF83400E7
:1049200090F90D100AF11D003DF069FF43F60120DA
:10493000AAF8730040F64F00AAF83C004FF6D87072
:104940002730AAF81A00504641F058FCFEF7CFBFB6
:10495000504610F81D1FFE2904D1417801F0C00116
:10496000802904D03FF092F8002840F0018341F004
:10497000C7FBC0F2FD820AEB000111F88C0F31F881
:10498000042C12BA160CFF2800F03C8508463FF0B4
:104990007DF8002840F0EC826420B6FBF0F4642E31
:1049A00005F1440038BF01240568002D00F0E082C5
:1049B000284621463EF0FEFC05F11800F4E7544677
:1049C00014F81D0FFE2840F0D382607842F0BAF848
:1049D00040F0CE8241F094FBC0F2CA820AEB0001A3
:1049E00011F88C0FFF2840F0C382686C3FF0A7FEDF
:1049F000002800F0BD820646408A002800F0B882F8
:104A0000A86B21463FF074FB002840F0B1820020E3
:104A10007082307C00F0FE003074A9E29AF87400D5
:104A2000BAF840404FF00008CDF89880CDE92488CE
:104A3000002841F051819AF87200FF2841F04A8124
:104A4000DAF8349050463AF0DCFB002801F042815D
:104A50005046012141F006FF4F46054637F8980FB2
:104A6000810741F1BC8010F0400608BF002D00F026
:104A70009F865046212141F0F5FE002801F0AD80CF
:104A80004178022941F043838178002941F03F8336
:104A9000002D41F0A180002E01F09E808168129BC4
:104AA000C2688046196013995A6000228A800A60A1
:104AB00040F20121ADF8B0102CAD01F08EB89AF89B
:104AC0007400002840F054829AF87200FF2840F0E9
:104AD0004F82BAF8404050463AF093FB002800F06D
:104AE00047820AEB04008830054615F8041FFF29A9
:104AF00000F03E82544690F8008014F8090FFF2819
:104B000003D15FEA486000F13382DAF83460294665
:104B1000B76B38463FF006FE002800F0FB8590F8A2
:104B20002100800740F12482304629463CF018F8E5
:104B30001EE20020D6F8A45141468DF8B0002CA802
:104B4000009027AA30461CABA847804600283FF4B7
:104B500052AD9DF8B00000287FF44DADB8F8760056
:104B6000C0F3801538783A2807D11FFA8AF0042854
:104B700003D32078872808BF012598F8750000071F
:104B80000AD5B9F1000F07D140460021002213F0E9
:104B9000B3FC002800F04884002D00F0F0810126CD
:104BA000F1E100200029ADF8B00000F0AB83DDF8A2
:104BB000609000200C463A462346B9F1280F88BF82
:104BC00001202CA900911CA9CDE9011050463146C5
:104BD00020F028F98046BDF8B00000283FF40BAD66
:104BE000A246B8F87650A4EB000A3C18F4E5DAF8CF
:104BF0003460002E00F0BC81D6F85C41002C00F03F
:104C0000B781554615F81D0FFF2800F002859AF868
:104C10007400032800F0F684012800F004850028C1
:104C200040F0F78415F8147C5046022139F04CFB13
:104C3000002800F0EE8450460221072213233FF0A3
:104C40001AFE002800F0B885017D90F8029090F8D7
:104C500003800430199100F0B6BD3B202885002068
:104C6000A87198F87500400751BF05F12A0140F27C
:104C70000520C5F82A0005F12E0105F128000A1AC1
:104C800012F0070205D0072A40F05483002201F8F1
:104C9000012B091A4FF0FF3202EBD10185F82910E0
:104CA00098F8731001702B20A8F83C000020B8F889
:104CB0004410A8F87300B8F84000081AB0F5C56FA2
:104CC0003EF7FAAE97E4BAF82E70072F40F0E5826F
:104CD000B9F1000F0CD041F015FF09D141F0AAFB4A
:104CE000014650463DF03FFD41F00CFF00F0A0832F
:104CF00040F63F00AAF83C0041F20110AAF8730008
:104D0000FEF7F5BD00F0E000602840F02B8141F097
:104D100005FA504624A91CF0B9FD002800F046838E
:104D2000044640F08DFF00F041830646BAF840008B
:104D30002246504400F1880142F0B4F8BAF840002D
:104D4000204441F0B8FCBDF890805046414629F01F
:104D50003BF9002800F095848246B0F84000A0EBB3
:104D6000080041F0A8FC0AF11C0127A836F016FF44
:104D7000002800F01C830AF108012CA836F00EFF71
:104D8000002800F0148307F18C000AF18801CDE9B6
:104D90001C062CA8229027A8219000202090BAF869
:104DA000440008441E90BAF8400008441F901CA814
:104DB00020F0FAF8002800F0FA820DF1740C9CE85B
:104DC000131004F104090A1BBCF1000F00F0C286A5
:104DD000037803F0F801F0293BD103F00305022D1D
:104DE0000ED0032D0FD1F02525704178A5700B252D
:104DF0000909B03161704178023065F31F1111E08B
:104E0000471CF02101E04178871C21703846012DB4
:104E100010F8011B61701ABF7978B81CF021A170DD
:104E200010F8011BE17011BA090CA180590700F1BB
:104E3000BE8210F8021B09F10809083AA17110F8A6
:104E4000011CE171112108348CF800104FF0000CA6
:104E5000BAE703F0F001CDE91F4CE02940F0A7824A
:104E600003F0FE01E0390E2900F2A18200220023A6
:104E7000DFE811F018009D020F009D0211009D0255
:104E800014009D0216009D029D029D029D029D023E
:104E900072002B2305E02C23012203E03C2300E0D9
:104EA00037230022411C8CF800301D910378DB076A
:104EB00005D100212091811C1D91407801E02094B2
:104EC0003B20234601F1010B03F8010BCDF874B030
:104ED0001F930F787AB1A01C67701F90DBF8000059
:104EE000C4F80200BBF80400E08004F108001F9041
:104EF000C81D1D902DE0781CA51C59463A46C008D7
:104F0000607028461F9542F099F80BEB0701E819ED
:104F1000DDF86CB01D91B91C1F9011F007013FF432
:104F20004CAF072905D100210170E01903301F9013
:104F30000FE001220270C1F10600E21909EB07013E
:104F4000D070020604D00022013801F8012BF8E7E6
:104F50001F91DDF86CB030E7292101308CF800108A
:104F60001D9024E75FF8340C806D08B141F06AFDB4
:104F7000504636F00DF94FF0000AFEF7B7BA40463A
:104F800036F05CFE064698F80900FE2823D198F812
:104F90000A1001F0C00180291DD198F81D00FE28DB
:104FA00024D198F81E0041F0CDFD1FD1D8F8110092
:104FB000D8F81510CDE92C0180F002008DF8B00072
:104FC0001A982CA92BF0C4F818B1017D41F0080102
:104FD000017598F80900FF2808D11A994046324611
:104FE00036F07EF9804620B9FEF76ABD002E00F04B
:104FF000908100203E46ADF890005FEA0A41387883
:1050000000F0108227462B281CA918D03C2840F01D
:105010005381B8F840001FFA8AF34044381A8838A0
:1050200048454FF00000B8BF012024AACDE9002177
:10503000029040463A461A991FF0F4FE1FE0B8F875
:105040007600400700F1C4801FFA8AF21A99032AF9
:1050500001D804200DE0B8F840003B460824404445
:1050600000F1880513F8010F04EBC000904208D945
:10507000581B00904046042200231BF08FF9804605
:10508000B0E07A1B4A4502DAADF89000AFE03A464C
:1050900012F8023F032B36D1D1F85C01002800F052
:1050A000978098F8750040F0020088F87500D1F8F4
:1050B000580128B191F82C10032901D041F0F6F9DC
:1050C0003A4612F8034F12F8020CC00004B34FF630
:1050D000D8763B797D79102118361E43A1EB131148
:1050E0003044A0EB151000B290FBF1F000B2451C6B
:1050F000B8F8400040448830A5420BD2101A009006
:1051000040461A99B7E7FB78002BBDD0501BB0E79B
:105110000830B9E7013C2E464546147015F8092FB2
:10512000FF2A169554D01D09E4B203F00F02002C9B
:105130001795199208BF1546321B531E03FB0171C8
:10514000083110910D951DB910990978FF293FD0AC
:105150001830CDF838A00F90501CB0424BD90D98A4
:105160000F9C1099C0F11002204440F076F8169878
:10517000214641F07DFD40463CF099FD1A98457B63
:10518000D0F85C01007CFF2818BF054668B241F0EA
:10519000EDF968B10446C06A16993FF0DDFA38B1FE
:1051A0000146807C062803D1204630F057FCFF25BD
:1051B00068B240F035FD07D016990246404615F01A
:1051C000F9F9002841F07C800020012207234EE0FD
:1051D0005FF8A00E806D08B141F034FC41F00EFE86
:1051E0004FF00008BDF8900000283FF404AAAAEB95
:1051F000000A3C18FDE62CA80F9941F039FDDDF8B6
:1052000040A065424FF00109B3460BEB050058453D
:10521000A5D81998002D179908BF01462CAEC1F1E9
:1052200010047018514641F05CFD1A98314634F074
:10523000A9FE0028014618BF012141EA0901C9075A
:1052400006D0B0FA80F0A24401354FEA5019DCE7ED
:10525000DFF8040F806D10B1C16A0131C162B8F886
:1052600040001099042200234044081A8838009016
:1052700040461A991BF092F8DDF86CB0DDF86090AA
:10528000DDF838A0FBE6D0F83D10D0F8410078609A
:10529000032039602070FFF7F9B8544614F8090F5D
:1052A000FF2800F087800AF11D01204610223FF000
:1052B000D4FFBAF82E7090E0112800F0CC80292895
:1052C00000F0D9802C2800F063813A2800F08C810E
:1052D0003B2800F0A980B8F87610490700F14C810E
:1052E00008F1080108F11C022DF0B4FE0146404609
:1052F0003DF039FAD8F83800002800F03D8140F63A
:10530000BF0073E104203146009050460422FEF7AE
:10531000A3BD1A9CD4F88C2112B120464146904777
:10532000404621461CAA18F07BFBFEF798BD4FF0C3
:1053300000082EE00123C2F106020B704A70023110
:1053400013063FF4A6AC0023013A0B70F8E7304691
:10535000214641F08DFC2846314641F0D1FC002821
:105360003FF406AE0146204641F082FC45E0BAF823
:105370004010084441F09FF95046214640F037FF65
:10538000BAF84000594622465044883041F056FE53
:10539000D04641F0EEFC41F010FAB8F1000F3EF4B7
:1053A000A5A89120A8F83C00FFF72BB9002641F0F2
:1053B0009AFDDDE5DAF83400214641F0A1FC002831
:1053C0003FF4D6AD0AF11D0605462046102241F0F5
:1053D00030FD3046294641F04BFC40210020AAF820
:1053E0001A708AF8721033218AF878008AF84C0013
:1053F000AAF83C100721AAF82E10504635F060FAA2
:10540000FEF775BA6420B6FBF0F4642E38BF0124B1
:10541000686C3FF094F900283FF4AAAD21463DF0B6
:10542000C9FFA5E53B2811D141F0E8FCFEF748BBD8
:10543000A9EB0500AAF84460002101220423AAF880
:105440004000002000905046FEF707BD0420009069
:1054500040461A995AE7112088F8730040F6B300C5
:10546000A8F83C00B8F840004044381A8838A8F83A
:105470004800FFF7C0B898F8750010F00B0F7BD00C
:1054800040461CA93CF028FC307888F8730098F856
:105490007500C00735D040462CA92FF0CFFA2C98C4
:1054A00020B3C4784178102000EAD40008440130C9
:1054B00040F0C6FBC8F8540018D02C9911F8012F01
:1054C000013241F0BBFD60B2B0F1FF3F0EDC60067F
:1054D00008F1090158BF08F11D012C98D8F8542093
:1054E000407810441022013041F0A8FD98F8750072
:1054F000C00704D0D8F85400002800F0E287DDF897
:105500006CB00020B8F8441088F87500A7EB0800CC
:105510008838A8F8400080B2081A282828DB98F8B4
:105520007800DFF8381C00F0030001EB80033878C6
:105530007978020142EA111202F003041B5DFF2B8D
:1055400000F0BF8722F0030201F00F0100F0F0002D
:10555000DDF86CB01A4341EA02117970D1B240EA29
:105560001110F979387098F87200814288BFF8718B
:1055700040F6BB00FEF7CFBCB8F840000422012380
:105580004044301A8838009040461A99FEF765BCAE
:105590001FFA8AF0082840F2A580FC783946B8F84E
:1055A000402011F8023F14F001001A9018BF5FEA82
:1055B0004A7040F0978008F18800851804F0F802DE
:1055C00042EA03290AEB09021FFA89F4A2F109034E
:1055D0009BB2A342CDE9183480F03A81481B0021E8
:1055E00000904046FEF7F4BF40F6B400A8F83C0037
:1055F000A7EB080031788838A8F8400088F87310C5
:10560000FEF7F9BFBAF84010BAF84400401A032870
:105610006DDCDFF8440B806D00283FF4A9AC416CD1
:1056200001314164A4E45046182138F04DFEE8B140
:10563000BAF840000AEB000919F8900F19F8071C96
:1056400019F8082C39F8068CFE281A9119F8041C50
:10565000199119F8031C189105D199F8011001F05E
:10566000C001802902D0FF2840F05B81DFF8E80A02
:10567000806D00283EF408AE416C01314164FEF7B4
:1056800003BE4FF0000A92E6DDF86CB00020D9F8B6
:105690000090B9F1000F17D099F80810B14209F144
:1056A00010011CBF89F8086001200C68002CEED0A6
:1056B0006178B14205D02846214666703FF0E0FB94
:1056C000012004F11401F0E718990843C00705F11F
:1056D000240018D005F134013EF009FC2BF0F8FF4E
:1056E000FFF746BC04200021009040460EE60AEB7E
:1056F000010717F8881F97F90120B2F1FF3F40F327
:105700009380002294E00178FF291CBF01310170D1
:10571000FFF72EBC50462121022239F0D1F930B3D7
:105720008146B6F8980080060ED5B9F8060099F8BB
:1057300002B006F58C7108221A9009F108003FF0BA
:1057400033FF002800F0148241F0D4F90FD009F1A2
:10575000080006F58C7108223FF026FF38B999F849
:10576000020020B10AF11D01304639F097FCD6F84D
:10577000C40029463EF0F0FFDDF86CB000283FF48D
:10578000F7AB0746504602210022A4F1010939F087
:1057900097F9002800F0C381D6F8AC3101463046B5
:1057A0004A469847002800F0BA8199F80030B9E1DC
:1057B0004FF00008002512E200204FF000084FF0E3
:1057C0000009199000201A90DFF89409CDE91C65B2
:1057D000FF2FDFF8905908F0200708F0400B08BFB2
:1057E00005462468002C3EF44FAD266B002EF8D001
:1057F000BBF1000F02D0207B4845F2D137B13068B1
:105800001A9908303FF0F8F90028EAD04FFA88F0EA
:10581000B0F1FF3F03DC307919998842E1D120468D
:1058200031461CAAA847DCE71428FFF4F2AE3A1D63
:10583000206839F0B1FDD8B3F97896F90D20BB781E
:10584000009129461EF0DEFFDDF86CB0FFF790BB3B
:10585000791B169517915FEA0941109135D1397876
:1058600031701A9989BB1699179C01F10800A2B2F0
:1058700041F0E6FBB8F840000830A8F8400041F0DD
:10588000C0FA81886FF0070209BA02EB114109BA28
:10589000090C818040F6BB00A8F84840A8F83C00FD
:1058A00098F8750040F0200088F87500FEF7A1BE5A
:1058B000DFF8A408DDF86CB0806D00283FF458AB29
:1058C000816B01318163FFF753BB381AA2F10801E4
:1058D00008300F91A8F84000381D41F03AFB04460B
:1058E000159808F1090B08F11D0500270668002E20
:1058F00000F081807068A0420FD1D6F80CA0284635
:105900000AF11D013FF078F938B10AF10901584652
:105910003FF072F9002840F0CE8006F11000013708
:10592000E4E7206811460E924A4639F035FD17909B
:1059300090BB602030F01CFE002817903EF4A4AC11
:10594000DDF85CB06021584641F028F90BF14C00BD
:10595000F021CBF850000BF128008BF80D108BF8DC
:105960005410CBF82C000BF11C00CBF82000DFF812
:10597000F8074069CBF80840CBF814000E988BF874
:105980000C0020680028014608BF2146C1F804B079
:10599000CBE90004C4F800B098FA88F01799070C16
:1059A000DFF8C4070161886A96F90D2029463DF0A9
:1059B0007FFB01464FF6D87027300A460C9080B224
:1059C0000F9116910B97874200F0CB8509F11000DB
:1059D0000D9017981C300A900768002F00F00D8278
:1059E00007F1080049463FF007F9002840F05982C6
:1059F00007F15000F0E7042F09D3DFF87007D0E972
:105A00001A01002818BFA1F1100039F03BF8182046
:105A100040F016F900F055850646179800F5B76076
:105A200080B22CF0CFFB0028F06000F0D180B0F8FD
:105A30004010179A4FF0000E08F11C0C1144A0F80A
:105A40004010F068A0F8441031814FF6D870F26829
:105A50002730708112FA81F1893121F001014880EB
:105A6000A1F800E070898880A6F80AE0F1689CE857
:105A7000AD0008F1080C1C31ADC1F1689CE8AD0027
:105A80000831ADC186F802E0A6F800E07460334644
:105A900098F8780000F00300F070DFF8D00650F8B6
:105AA000681F01F11402002908BF021D43F8101FEE
:105AB0001360706106607078002840F00285F76816
:105AC0003089B7F84010091A01F5BC6108BF4FF4DE
:105AD000B7611A9A002A18BF0839189A89B28A42FF
